{
  "abi": [
    {
      "anonymous": false,
      "inputs": [
        {
          "indexed": true,
          "internalType": "address",
          "name": "previousOwner",
          "type": "address"
        },
        {
          "indexed": true,
          "internalType": "address",
          "name": "newOwner",
          "type": "address"
        }
      ],
      "name": "OwnershipTransferred",
      "type": "event"
    },
    {
      "inputs": [
        {
          "internalType": "contract CryptoVault",
          "name": "cryptoVault",
          "type": "address"
        },
        {
          "internalType": "contract DoubleEntryPoint",
          "name": "instance",
          "type": "address"
        }
      ],
      "name": "__trySweep",
      "outputs": [
        {
          "internalType": "bool",
          "name": "",
          "type": "bool"
        },
        {
          "internalType": "bytes",
          "name": "",
          "type": "bytes"
        }
      ],
      "stateMutability": "nonpayable",
      "type": "function"
    },
    {
      "inputs": [
        {
          "internalType": "address",
          "name": "_player",
          "type": "address"
        }
      ],
      "name": "createInstance",
      "outputs": [
        {
          "internalType": "address",
          "name": "",
          "type": "address"
        }
      ],
      "stateMutability": "payable",
      "type": "function"
    },
    {
      "inputs": [],
      "name": "owner",
      "outputs": [
        {
          "internalType": "address",
          "name": "",
          "type": "address"
        }
      ],
      "stateMutability": "view",
      "type": "function"
    },
    {
      "inputs": [],
      "name": "renounceOwnership",
      "outputs": [],
      "stateMutability": "nonpayable",
      "type": "function"
    },
    {
      "inputs": [
        {
          "internalType": "address",
          "name": "newOwner",
          "type": "address"
        }
      ],
      "name": "transferOwnership",
      "outputs": [],
      "stateMutability": "nonpayable",
      "type": "function"
    },
    {
      "inputs": [
        {
          "internalType": "address payable",
          "name": "_instance",
          "type": "address"
        },
        {
          "internalType": "address",
          "name": "_player",
          "type": "address"
        }
      ],
      "name": "validateInstance",
      "outputs": [
        {
          "internalType": "bool",
          "name": "",
          "type": "bool"
        }
      ],
      "stateMutability": "nonpayable",
      "type": "function"
    }
  ],
  "bytecode": {
    "object": "0x608060405234801561001057600080fd5b5061001a3361001f565b61006f565b600080546001600160a01b038381166001600160a01b0319831681178455604051919092169283917f8be0079c531659141344cd1fd0a4f28419497f9722a3daafe3b4186f6b6457e09190a35050565b6134a38061007e6000396000f3fe6080604052600436106200005c5760003560e01c8063715018a614620000615780637726f776146200007b5780638da5cb5b14620000af578063d38def5b14620000cf578063f2fde38b1462000105578063fae99eae146200012a575b600080fd5b3480156200006e57600080fd5b50620000796200015f565b005b620000926200008c36600462000970565b62000177565b6040516001600160a01b0390911681526020015b60405180910390f35b348015620000bc57600080fd5b506000546001600160a01b031662000092565b348015620000dc57600080fd5b50620000f4620000ee36600462000997565b620003a6565b6040519015158152602001620000a6565b3480156200011257600080fd5b50620000796200012436600462000970565b62000600565b3480156200013757600080fd5b506200014f6200014936600462000997565b6200067f565b604051620000a6929190620009fb565b6200016962000876565b620001756000620008d2565b565b600080604051620001889062000922565b604051809103906000f080158015620001a5573d6000803e3d6000fd5b5090506000604051620001b89062000930565b604051809103906000f080158015620001d5573d6000803e3d6000fd5b509050600084604051620001e9906200093e565b6001600160a01b039091168152602001604051809103906000f08015801562000216573d6000803e3d6000fd5b5090506000838284886040516200022d906200094c565b6001600160a01b039485168152928416602084015290831660408301529091166060820152608001604051809103906000f08015801562000272573d6000803e3d6000fd5b5060405163bdb2321f60e01b81526001600160a01b0380831660048301529192509083169063bdb2321f90602401600060405180830381600087803b158015620002bb57600080fd5b505af1158015620002d0573d6000803e3d6000fd5b505060405162074b6160ea1b81526001600160a01b03848116600483015287169250631d2d84009150602401600060405180830381600087803b1580156200031757600080fd5b505af11580156200032c573d6000803e3d6000fd5b50506040516340c10f1960e01b81526001600160a01b03858116600483015268056bc75e2d631000006024830152871692506340c10f199150604401600060405180830381600087803b1580156200038357600080fd5b505af115801562000398573d6000803e3d6000fd5b509298975050505050505050565b6000808390506000816001600160a01b031663d8670e1f6040518163ffffffff1660e01b8152600401602060405180830381865afa158015620003ed573d6000803e3d6000fd5b505050506040513d601f19601f8201168201806040525081019062000413919062000a39565b604051634f0841e560e11b81526001600160a01b038681166004830152919250600091831690639e1083ca90602401602060405180830381865afa15801562000460573d6000803e3d6000fd5b505050506040513d601f19601f8201168201806040525081019062000486919062000a39565b90506001600160a01b038116620004a45760009350505050620005fa565b6000836001600160a01b031663d444d8a06040518163ffffffff1660e01b8152600401602060405180830381865afa158015620004e5573d6000803e3d6000fd5b505050506040513d601f19601f820116820180604052508101906200050b919062000a39565b604051637d74cf5760e11b81526001600160a01b0380831660048301528616602482015290915081906000908190309063fae99eae906044016000604051808303816000875af115801562000564573d6000803e3d6000fd5b505050506040513d6000823e601f3d908101601f191682016040526200058e919081019062000a85565b915091508115620005d75760405162461bcd60e51b815260206004820152600e60248201526d14ddd9595c081cdd58d8d959195960921b60448201526064015b60405180910390fd5b600081806020019051810190620005ef919062000b53565b985050505050505050505b92915050565b6200060a62000876565b6001600160a01b038116620006715760405162461bcd60e51b815260206004820152602660248201527f4f776e61626c653a206e6577206f776e657220697320746865207a65726f206160448201526564647265737360d01b6064820152608401620005ce565b6200067c81620008d2565b50565b60006060836001600160a01b0316631be19560846001600160a01b03166326fe99516040518163ffffffff1660e01b8152600401602060405180830381865afa158015620006d1573d6000803e3d6000fd5b505050506040513d601f19601f82011682018060405250810190620006f7919062000a39565b6040516001600160e01b031960e084901b1681526001600160a01b039091166004820152602401600060405180830381600087803b1580156200073957600080fd5b505af19250505080156200074b575060015b6200085a57600080846001600160a01b03166370a08231866001600160a01b031663d444d8a06040518163ffffffff1660e01b8152600401602060405180830381865afa158015620007a1573d6000803e3d6000fd5b505050506040513d601f19601f82011682018060405250810190620007c7919062000a39565b6040516001600160e01b031960e084901b1681526001600160a01b039091166004820152602401602060405180830381865afa1580156200080c573d6000803e3d6000fd5b505050506040513d601f19601f8201168201806040525081019062000832919062000b71565b60408051929091116020830152015b604051602081830303815290604052915091506200086f565b60408051600060208201526001910162000841565b9250929050565b6000546001600160a01b03163314620001755760405162461bcd60e51b815260206004820181905260248201527f4f776e61626c653a2063616c6c6572206973206e6f7420746865206f776e65726044820152606401620005ce565b600080546001600160a01b038381166001600160a01b0319831681178455604051919092169283917f8be0079c531659141344cd1fd0a4f28419497f9722a3daafe3b4186f6b6457e09190a35050565b610eeb8062000b8c83390190565b6103998062001a7783390190565b6103b18062001e1083390190565b6112ad80620021c183390190565b6001600160a01b03811681146200067c57600080fd5b6000602082840312156200098357600080fd5b813562000990816200095a565b9392505050565b60008060408385031215620009ab57600080fd5b8235620009b8816200095a565b91506020830135620009ca816200095a565b809150509250929050565b60005b83811015620009f2578181015183820152602001620009d8565b50506000910152565b8215158152604060208201526000825180604084015262000a24816060850160208701620009d5565b601f01601f1916919091016060019392505050565b60006020828403121562000a4c57600080fd5b815162000990816200095a565b8051801515811462000a6a57600080fd5b919050565b634e487b7160e01b600052604160045260246000fd5b6000806040838503121562000a9957600080fd5b62000aa48362000a59565b9150602083015167ffffffffffffffff8082111562000ac257600080fd5b818501915085601f83011262000ad757600080fd5b81518181111562000aec5762000aec62000a6f565b604051601f8201601f19908116603f0116810190838211818310171562000b175762000b1762000a6f565b8160405282815288602084870101111562000b3157600080fd5b62000b44836020830160208801620009d5565b80955050505050509250929050565b60006020828403121562000b6657600080fd5b620009908262000a59565b60006020828403121562000b8457600080fd5b505191905056fe60806040523480156200001157600080fd5b506040518060400160405280600b81526020016a2632b3b0b1bcaa37b5b2b760a91b815250604051806040016040528060038152602001621311d560ea1b815250816003908162000063919062000192565b50600462000072828262000192565b5050506200008f620000896200009560201b60201c565b62000099565b6200025e565b3390565b600580546001600160a01b038381166001600160a01b0319831681179093556040519116919082907f8be0079c531659141344cd1fd0a4f28419497f9722a3daafe3b4186f6b6457e090600090a35050565b634e487b7160e01b600052604160045260246000fd5b600181811c908216806200011657607f821691505b6020821081036200013757634e487b7160e01b600052602260045260246000fd5b50919050565b601f8211156200018d576000816000526020600020601f850160051c81016020861015620001685750805b601f850160051c820191505b81811015620001895782815560010162000174565b5050505b505050565b81516001600160401b03811115620001ae57620001ae620000eb565b620001c681620001bf845462000101565b846200013d565b602080601f831160018114620001fe5760008415620001e55750858301515b600019600386901b1c1916600185901b17855562000189565b600085815260208120601f198616915b828110156200022f578886015182559484019460019091019084016200020e565b50858210156200024e5787850151600019600388901b60f8161c191681555b5050505050600190811b01905550565b610c7d806200026e6000396000f3fe608060405234801561001057600080fd5b506004361061010b5760003560e01c806370a08231116100a2578063a457c2d711610071578063a457c2d71461021e578063a9059cbb14610231578063c89e436114610244578063dd62ed3e14610257578063f2fde38b1461026a57600080fd5b806370a08231146101c0578063715018a6146101e95780638da5cb5b146101f157806395d89b411461021657600080fd5b806323b872dd116100de57806323b872dd14610178578063313ce5671461018b578063395093511461019a57806340c10f19146101ad57600080fd5b806306fdde0314610110578063095ea7b31461012e57806318160ddd146101515780631d2d840014610163575b600080fd5b61011861027d565b6040516101259190610a9c565b60405180910390f35b61014161013c366004610b00565b61030f565b6040519015158152602001610125565b6002545b604051908152602001610125565b610176610171366004610b2c565b610329565b005b610141610186366004610b50565b610353565b60405160128152602001610125565b6101416101a8366004610b00565b610377565b6101766101bb366004610b00565b610399565b6101556101ce366004610b2c565b6001600160a01b031660009081526020819052604090205490565b6101766103af565b6005546001600160a01b03165b6040516001600160a01b039091168152602001610125565b6101186103c3565b61014161022c366004610b00565b6103d2565b61014161023f366004610b00565b610452565b6006546101fe906001600160a01b031681565b610155610265366004610b91565b6104f3565b610176610278366004610b2c565b61051e565b60606003805461028c90610bca565b80601f01602080910402602001604051908101604052809291908181526020018280546102b890610bca565b80156103055780601f106102da57610100808354040283529160200191610305565b820191906000526020600020905b8154815290600101906020018083116102e857829003601f168201915b5050505050905090565b60003361031d818585610597565b60019150505b92915050565b6103316106bb565b600680546001600160a01b0319166001600160a01b0392909216919091179055565b600033610361858285610715565b61036c85858561078f565b506001949350505050565b60003361031d81858561038a83836104f3565b6103949190610c04565b610597565b6103a16106bb565b6103ab828261095d565b5050565b6103b76106bb565b6103c16000610a3c565b565b60606004805461028c90610bca565b600033816103e082866104f3565b9050838110156104455760405162461bcd60e51b815260206004820152602560248201527f45524332303a2064656372656173656420616c6c6f77616e63652062656c6f77604482015264207a65726f60d81b60648201526084015b60405180910390fd5b61036c8286868403610597565b6006546000906001600160a01b03166104765761046f8383610a8e565b9050610323565b600654604051639cd1a12160e01b81526001600160a01b0385811660048301526024820185905233604483015290911690639cd1a121906064016020604051808303816000875af11580156104cf573d6000803e3d6000fd5b505050506040513d601f19601f8201168201806040525081019061046f9190610c25565b6001600160a01b03918216600090815260016020908152604080832093909416825291909152205490565b6105266106bb565b6001600160a01b03811661058b5760405162461bcd60e51b815260206004820152602660248201527f4f776e61626c653a206e6577206f776e657220697320746865207a65726f206160448201526564647265737360d01b606482015260840161043c565b61059481610a3c565b50565b6001600160a01b0383166105f95760405162461bcd60e51b8152602060048201526024808201527f45524332303a20617070726f76652066726f6d20746865207a65726f206164646044820152637265737360e01b606482015260840161043c565b6001600160a01b03821661065a5760405162461bcd60e51b815260206004820152602260248201527f45524332303a20617070726f766520746f20746865207a65726f206164647265604482015261737360f01b606482015260840161043c565b6001600160a01b0383811660008181526001602090815260408083209487168084529482529182902085905590518481527f8c5be1e5ebec7d5bd14f71427d1e84f3dd0314c0f7b2291e5b200ac8c7c3b925910160405180910390a3505050565b6005546001600160a01b031633146103c15760405162461bcd60e51b815260206004820181905260248201527f4f776e61626c653a2063616c6c6572206973206e6f7420746865206f776e6572604482015260640161043c565b600061072184846104f3565b90506000198114610789578181101561077c5760405162461bcd60e51b815260206004820152601d60248201527f45524332303a20696e73756666696369656e7420616c6c6f77616e6365000000604482015260640161043c565b6107898484848403610597565b50505050565b6001600160a01b0383166107f35760405162461bcd60e51b815260206004820152602560248201527f45524332303a207472616e736665722066726f6d20746865207a65726f206164604482015264647265737360d81b606482015260840161043c565b6001600160a01b0382166108555760405162461bcd60e51b815260206004820152602360248201527f45524332303a207472616e7366657220746f20746865207a65726f206164647260448201526265737360e81b606482015260840161043c565b6001600160a01b038316600090815260208190526040902054818110156108cd5760405162461bcd60e51b815260206004820152602660248201527f45524332303a207472616e7366657220616d6f756e7420657863656564732062604482015265616c616e636560d01b606482015260840161043c565b6001600160a01b03808516600090815260208190526040808220858503905591851681529081208054849290610904908490610c04565b92505081905550826001600160a01b0316846001600160a01b03167fddf252ad1be2c89b69c2b068fc378daa952ba7f163c4a11628f55a4df523b3ef8460405161095091815260200190565b60405180910390a3610789565b6001600160a01b0382166109b35760405162461bcd60e51b815260206004820152601f60248201527f45524332303a206d696e7420746f20746865207a65726f206164647265737300604482015260640161043c565b80600260008282546109c59190610c04565b90915550506001600160a01b038216600090815260208190526040812080548392906109f2908490610c04565b90915550506040518181526001600160a01b038316906000907fddf252ad1be2c89b69c2b068fc378daa952ba7f163c4a11628f55a4df523b3ef9060200160405180910390a35050565b600580546001600160a01b038381166001600160a01b0319831681179093556040519116919082907f8be0079c531659141344cd1fd0a4f28419497f9722a3daafe3b4186f6b6457e090600090a35050565b60003361031d81858561078f565b60006020808352835180602085015260005b81811015610aca57858101830151858201604001528201610aae565b506000604082860101526040601f19601f8301168501019250505092915050565b6001600160a01b038116811461059457600080fd5b60008060408385031215610b1357600080fd5b8235610b1e81610aeb565b946020939093013593505050565b600060208284031215610b3e57600080fd5b8135610b4981610aeb565b9392505050565b600080600060608486031215610b6557600080fd5b8335610b7081610aeb565b92506020840135610b8081610aeb565b929592945050506040919091013590565b60008060408385031215610ba457600080fd5b8235610baf81610aeb565b91506020830135610bbf81610aeb565b809150509250929050565b600181811c90821680610bde57607f821691505b602082108103610bfe57634e487b7160e01b600052602260045260246000fd5b50919050565b8082018082111561032357634e487b7160e01b600052601160045260246000fd5b600060208284031215610c3757600080fd5b81518015158114610b4957600080fdfea264697066735822122072fa60ad479048bab3a0c98c1da73f98205d1aa96ef0fd834d67e70609072d8d64736f6c63430008160033608060405234801561001057600080fd5b50610379806100206000396000f3fe608060405234801561001057600080fd5b50600436106100575760003560e01c8063087a43c11461005c5780639e1083ca146100715780639e927c68146100b7578063dc702fa0146100f4578063fa1fd28c14610122575b600080fd5b61006f61006a366004610237565b610135565b005b61009a61007f366004610237565b6000602081905290815260409020546001600160a01b031681565b6040516001600160a01b0390911681526020015b60405180910390f35b61006f6100c5366004610237565b33600090815260208190526040902080546001600160a01b0319166001600160a01b0392909216919091179055565b610114610102366004610237565b60016020526000908152604090205481565b6040519081526020016100ae565b61006f610130366004610259565b610183565b6001600160a01b038181166000908152602081905260409020541633146101595750565b336000908152600160208190526040822080549192909161017b9084906102dc565b909155505050565b6001600160a01b03838116600090815260208190526040902054166101a757505050565b6001600160a01b03808416600090815260208190526040908190205490516311055b5560e11b815291169063220ab6aa906101ea90869086908690600401610303565b600060405180830381600087803b15801561020457600080fd5b505af1925050508015610215575060015b50505050565b80356001600160a01b038116811461023257600080fd5b919050565b60006020828403121561024957600080fd5b6102528261021b565b9392505050565b60008060006040848603121561026e57600080fd5b6102778461021b565b9250602084013567ffffffffffffffff8082111561029457600080fd5b818601915086601f8301126102a857600080fd5b8135818111156102b757600080fd5b8760208285010111156102c957600080fd5b6020830194508093505050509250925092565b808201808211156102fd57634e487b7160e01b600052601160045260246000fd5b92915050565b6001600160a01b03841681526040602082018190528101829052818360608301376000818301606090810191909152601f909201601f191601019291505056fea264697066735822122017084fdaeca9583f43b00082e3939082d85ffbe12ba02c38f14363592dd5465c64736f6c63430008160033608060405234801561001057600080fd5b506040516103b13803806103b183398101604081905261002f91610054565b600080546001600160a01b0319166001600160a01b0392909216919091179055610084565b60006020828403121561006657600080fd5b81516001600160a01b038116811461007d57600080fd5b9392505050565b61031e806100936000396000f3fe608060405234801561001057600080fd5b506004361061004c5760003560e01c80631be19560146100515780633234a197146100665780636f307dc314610095578063bdb2321f146100a8575b600080fd5b61006461005f366004610289565b6100bb565b005b600054610079906001600160a01b031681565b6040516001600160a01b03909116815260200160405180910390f35b600154610079906001600160a01b031681565b6100646100b6366004610289565b610208565b6001546001600160a01b039081169082160361011e5760405162461bcd60e51b815260206004820152601f60248201527f43616e2774207472616e7366657220756e6465726c79696e6720746f6b656e0060448201526064015b60405180910390fd5b6000546040516370a0823160e01b81523060048201526001600160a01b038381169263a9059cbb9291169083906370a0823190602401602060405180830381865afa158015610171573d6000803e3d6000fd5b505050506040513d601f19601f8201168201806040525081019061019591906102ad565b6040516001600160e01b031960e085901b1681526001600160a01b03909216600483015260248201526044016020604051808303816000875af11580156101e0573d6000803e3d6000fd5b505050506040513d601f19601f8201168201806040525081019061020491906102c6565b5050565b6001546001600160a01b03161561024f5760405162461bcd60e51b815260206004820152600b60248201526a105b1c9958591e481cd95d60aa1b6044820152606401610115565b600180546001600160a01b0319166001600160a01b0392909216919091179055565b6001600160a01b038116811461028657600080fd5b50565b60006020828403121561029b57600080fd5b81356102a681610271565b9392505050565b6000602082840312156102bf57600080fd5b5051919050565b6000602082840312156102d857600080fd5b815180151581146102a657600080fdfea2646970667358221220035e5ee73acab4d482e6649d562fa8fc706f6b651e4d63a2cabea33629cadc9d64736f6c6343000816003360806040523480156200001157600080fd5b50604051620012ad380380620012ad83398101604081905262000034916200028a565b6040518060400160405280601581526020017f446f75626c65456e747279506f696e74546f6b656e00000000000000000000008152506040518060400160405280600381526020016211115560ea1b81525081600390816200009791906200038d565b506004620000a682826200038d565b505050620000c3620000bd6200012a60201b60201c565b6200012e565b600880546001600160a01b038087166001600160a01b0319928316179092556009805485841690831617905560078054848416908316179055600680549286169290911682179055620001209068056bc75e2d6310000062000180565b5050505062000481565b3390565b600580546001600160a01b038381166001600160a01b0319831681179093556040519116919082907f8be0079c531659141344cd1fd0a4f28419497f9722a3daafe3b4186f6b6457e090600090a35050565b6001600160a01b038216620001db5760405162461bcd60e51b815260206004820152601f60248201527f45524332303a206d696e7420746f20746865207a65726f206164647265737300604482015260640160405180910390fd5b8060026000828254620001ef919062000459565b90915550506001600160a01b038216600090815260208190526040812080548392906200021e90849062000459565b90915550506040518181526001600160a01b038316906000907fddf252ad1be2c89b69c2b068fc378daa952ba7f163c4a11628f55a4df523b3ef9060200160405180910390a35050565b505050565b80516001600160a01b03811681146200028557600080fd5b919050565b60008060008060808587031215620002a157600080fd5b620002ac856200026d565b9350620002bc602086016200026d565b9250620002cc604086016200026d565b9150620002dc606086016200026d565b905092959194509250565b634e487b7160e01b600052604160045260246000fd5b600181811c908216806200031257607f821691505b6020821081036200033357634e487b7160e01b600052602260045260246000fd5b50919050565b601f82111562000268576000816000526020600020601f850160051c81016020861015620003645750805b601f850160051c820191505b81811015620003855782815560010162000370565b505050505050565b81516001600160401b03811115620003a957620003a9620002e7565b620003c181620003ba8454620002fd565b8462000339565b602080601f831160018114620003f95760008415620003e05750858301515b600019600386901b1c1916600185901b17855562000385565b600085815260208120601f198616915b828110156200042a5788860151825594840194600190910190840162000409565b5085821015620004495787850151600019600388901b60f8161c191681555b5050505050600190811b01905550565b808201808211156200047b57634e487b7160e01b600052601160045260246000fd5b92915050565b610e1c80620004916000396000f3fe608060405234801561001057600080fd5b50600436106101215760003560e01c8063715018a6116100ad578063a9059cbb11610071578063a9059cbb1461025e578063d444d8a014610271578063d8670e1f14610284578063dd62ed3e14610297578063f2fde38b146102aa57600080fd5b8063715018a6146102155780638da5cb5b1461021f57806395d89b41146102305780639cd1a12114610238578063a457c2d71461024b57600080fd5b806326fe9951116100f457806326fe99511461018c578063313ce567146101b757806339509351146101c657806348db5f89146101d957806370a08231146101ec57600080fd5b806306fdde0314610126578063095ea7b31461014457806318160ddd1461016757806323b872dd14610179575b600080fd5b61012e6102bd565b60405161013b9190610ba5565b60405180910390f35b610157610152366004610c09565b61034f565b604051901515815260200161013b565b6002545b60405190815260200161013b565b610157610187366004610c35565b610369565b60085461019f906001600160a01b031681565b6040516001600160a01b03909116815260200161013b565b6040516012815260200161013b565b6101576101d4366004610c09565b61038d565b60075461019f906001600160a01b031681565b61016b6101fa366004610c76565b6001600160a01b031660009081526020819052604090205490565b61021d6103af565b005b6005546001600160a01b031661019f565b61012e6103c3565b610157610246366004610c9a565b6103d2565b610157610259366004610c09565b610660565b61015761026c366004610c09565b6106db565b60065461019f906001600160a01b031681565b60095461019f906001600160a01b031681565b61016b6102a5366004610cdc565b6106e9565b61021d6102b8366004610c76565b610714565b6060600380546102cc90610d15565b80601f01602080910402602001604051908101604052809291908181526020018280546102f890610d15565b80156103455780601f1061031a57610100808354040283529160200191610345565b820191906000526020600020905b81548152906001019060200180831161032857829003601f168201915b5050505050905090565b60003361035d81858561078d565b60019150505b92915050565b6000336103778582856108b1565b61038285858561092b565b506001949350505050565b60003361035d8185856103a083836106e9565b6103aa9190610d4f565b61078d565b6103b7610af9565b6103c16000610b53565b565b6060600480546102cc90610d15565b6008546000906001600160a01b0316331461042a5760405162461bcd60e51b8152602060048201526013602482015272139bdd081b1959d858de4818dbdb9d1c9858dd606a1b60448201526064015b60405180910390fd5b600954600754604051634f0841e560e11b81526001600160a01b0391821660048201526000929190911690639e1083ca90602401602060405180830381865afa15801561047b573d6000803e3d6000fd5b505050506040513d601f19601f8201168201806040525081019061049f9190610d70565b6009546040516306e3817d60e51b81526001600160a01b0380841660048301529293506000929091169063dc702fa090602401602060405180830381865afa1580156104ef573d6000803e3d6000fd5b505050506040513d601f19601f820116820180604052508101906105139190610d8d565b600954600754604051633e87f4a360e21b81529293506001600160a01b039182169263fa1fd28c9261054e9216906000903690600401610da6565b600060405180830381600087803b15801561056857600080fd5b505af115801561057c573d6000803e3d6000fd5b5050505061058b84878761092b565b6009546040516306e3817d60e51b81526001600160a01b038481166004830152600195508392169063dc702fa090602401602060405180830381865afa1580156105d9573d6000803e3d6000fd5b505050506040513d601f19601f820116820180604052508101906105fd9190610d8d565b11156106575760405162461bcd60e51b815260206004820152602360248201527f416c65727420686173206265656e207472696767657265642c20726576657274604482015262696e6760e81b6064820152608401610421565b50509392505050565b6000338161066e82866106e9565b9050838110156106ce5760405162461bcd60e51b815260206004820152602560248201527f45524332303a2064656372656173656420616c6c6f77616e63652062656c6f77604482015264207a65726f60d81b6064820152608401610421565b610382828686840361078d565b60003361035d81858561092b565b6001600160a01b03918216600090815260016020908152604080832093909416825291909152205490565b61071c610af9565b6001600160a01b0381166107815760405162461bcd60e51b815260206004820152602660248201527f4f776e61626c653a206e6577206f776e657220697320746865207a65726f206160448201526564647265737360d01b6064820152608401610421565b61078a81610b53565b50565b6001600160a01b0383166107ef5760405162461bcd60e51b8152602060048201526024808201527f45524332303a20617070726f76652066726f6d20746865207a65726f206164646044820152637265737360e01b6064820152608401610421565b6001600160a01b0382166108505760405162461bcd60e51b815260206004820152602260248201527f45524332303a20617070726f766520746f20746865207a65726f206164647265604482015261737360f01b6064820152608401610421565b6001600160a01b0383811660008181526001602090815260408083209487168084529482529182902085905590518481527f8c5be1e5ebec7d5bd14f71427d1e84f3dd0314c0f7b2291e5b200ac8c7c3b925910160405180910390a3505050565b60006108bd84846106e9565b9050600019811461092557818110156109185760405162461bcd60e51b815260206004820152601d60248201527f45524332303a20696e73756666696369656e7420616c6c6f77616e63650000006044820152606401610421565b610925848484840361078d565b50505050565b6001600160a01b03831661098f5760405162461bcd60e51b815260206004820152602560248201527f45524332303a207472616e736665722066726f6d20746865207a65726f206164604482015264647265737360d81b6064820152608401610421565b6001600160a01b0382166109f15760405162461bcd60e51b815260206004820152602360248201527f45524332303a207472616e7366657220746f20746865207a65726f206164647260448201526265737360e81b6064820152608401610421565b6001600160a01b03831660009081526020819052604090205481811015610a695760405162461bcd60e51b815260206004820152602660248201527f45524332303a207472616e7366657220616d6f756e7420657863656564732062604482015265616c616e636560d01b6064820152608401610421565b6001600160a01b03808516600090815260208190526040808220858503905591851681529081208054849290610aa0908490610d4f565b92505081905550826001600160a01b0316846001600160a01b03167fddf252ad1be2c89b69c2b068fc378daa952ba7f163c4a11628f55a4df523b3ef84604051610aec91815260200190565b60405180910390a3610925565b6005546001600160a01b031633146103c15760405162461bcd60e51b815260206004820181905260248201527f4f776e61626c653a2063616c6c6572206973206e6f7420746865206f776e65726044820152606401610421565b600580546001600160a01b038381166001600160a01b0319831681179093556040519116919082907f8be0079c531659141344cd1fd0a4f28419497f9722a3daafe3b4186f6b6457e090600090a35050565b60006020808352835180602085015260005b81811015610bd357858101830151858201604001528201610bb7565b506000604082860101526040601f19601f8301168501019250505092915050565b6001600160a01b038116811461078a57600080fd5b60008060408385031215610c1c57600080fd5b8235610c2781610bf4565b946020939093013593505050565b600080600060608486031215610c4a57600080fd5b8335610c5581610bf4565b92506020840135610c6581610bf4565b929592945050506040919091013590565b600060208284031215610c8857600080fd5b8135610c9381610bf4565b9392505050565b600080600060608486031215610caf57600080fd5b8335610cba81610bf4565b9250602084013591506040840135610cd181610bf4565b809150509250925092565b60008060408385031215610cef57600080fd5b8235610cfa81610bf4565b91506020830135610d0a81610bf4565b809150509250929050565b600181811c90821680610d2957607f821691505b602082108103610d4957634e487b7160e01b600052602260045260246000fd5b50919050565b8082018082111561036357634e487b7160e01b600052601160045260246000fd5b600060208284031215610d8257600080fd5b8151610c9381610bf4565b600060208284031215610d9f57600080fd5b5051919050565b6001600160a01b03841681526040602082018190528101829052818360608301376000818301606090810191909152601f909201601f191601019291505056fea264697066735822122069a323bfe9a86a8e0210b9a1004628d813ae9ccd8fa0eb4234b687d4cd7f119864736f6c63430008160033a2646970667358221220501465b025802ffe7aecccade9b6f614b1647022a00b040f055f58387420826d64736f6c63430008160033",
    "linkReferences": {}
  },
  "methodIdentifiers": {
    "__trySweep(address,address)": "fae99eae",
    "createInstance(address)": "7726f776",
    "owner()": "8da5cb5b",
    "renounceOwnership()": "715018a6",
    "transferOwnership(address)": "f2fde38b",
    "validateInstance(address,address)": "d38def5b"
  },
  "id": 37
}