{
  "abi": [
    {
      "inputs": [],
      "stateMutability": "nonpayable",
      "type": "constructor"
    },
    {
      "inputs": [
        {
          "internalType": "address",
          "name": "_solver",
          "type": "address"
        }
      ],
      "name": "setSolver",
      "outputs": [],
      "stateMutability": "nonpayable",
      "type": "function"
    },
    {
      "inputs": [],
      "name": "solver",
      "outputs": [
        {
          "internalType": "address",
          "name": "",
          "type": "address"
        }
      ],
      "stateMutability": "view",
      "type": "function"
    }
  ],
  "bytecode": {
    "object": "0x608060405234801561001057600080fd5b5060f88061001f6000396000f3fe6080604052348015600f57600080fd5b506004361060325760003560e01c80631f87943314603757806349a7a26d146066575b600080fd5b606460423660046094565b600080546001600160a01b0319166001600160a01b0392909216919091179055565b005b6000546078906001600160a01b031681565b6040516001600160a01b03909116815260200160405180910390f35b60006020828403121560a557600080fd5b81356001600160a01b038116811460bb57600080fd5b939250505056fea2646970667358221220072be42250c87cee2bcb5e2a694e31817c4907226fcdf073bf94c0a5b788f6a464736f6c63430008160033",
    "linkReferences": {}
  },
  "methodIdentifiers": {
    "setSolver(address)": "1f879433",
    "solver()": "49a7a26d"
  },
  "id": 21
}