{
  "abi": [
    {
      "inputs": [
        {
          "internalType": "bytes",
          "name": "_data",
          "type": "bytes"
        }
      ],
      "name": "flipSwitch",
      "outputs": [],
      "stateMutability": "nonpayable",
      "type": "function"
    },
    {
      "inputs": [],
      "name": "offSelector",
      "outputs": [
        {
          "internalType": "bytes4",
          "name": "",
          "type": "bytes4"
        }
      ],
      "stateMutability": "view",
      "type": "function"
    },
    {
      "inputs": [],
      "name": "switchOn",
      "outputs": [
        {
          "internalType": "bool",
          "name": "",
          "type": "bool"
        }
      ],
      "stateMutability": "view",
      "type": "function"
    },
    {
      "inputs": [],
      "name": "turnSwitchOff",
      "outputs": [],
      "stateMutability": "nonpayable",
      "type": "function"
    },
    {
      "inputs": [],
      "name": "turnSwitchOn",
      "outputs": [],
      "stateMutability": "nonpayable",
      "type": "function"
    }
  ],
  "bytecode": {
    "object": "0x60806040526000805464ffffffff0019166420606e150017905534801561002557600080fd5b506103fd806100356000396000f3fe608060405234801561001057600080fd5b50600436106100575760003560e01c806320606e151461005c57806330c13ade146100665780635a2cfa661461007957806376227e12146100a9578063f9f8f895146100b1575b600080fd5b6100646100ce565b005b6100646100743660046102e7565b61012e565b60005461008b90610100900460e01b81565b6040516001600160e01b031990911681526020015b60405180910390f35b610064610255565b6000546100be9060ff1681565b60405190151581526020016100a0565b3330146101225760405162461bcd60e51b815260206004820152601f60248201527f4f6e6c792074686520636f6e74726163742063616e2063616c6c20746869730060448201526064015b60405180910390fd5b6000805460ff19169055565b6101366102b3565b600460448237600054815161010090910460e01b6001600160e01b031916146101b25760405162461bcd60e51b815260206004820152602860248201527f43616e206f6e6c792063616c6c20746865207475726e4f666653776974636820604482015267333ab731ba34b7b760c11b6064820152608401610119565b6000306001600160a01b0316836040516101cc9190610398565b6000604051808303816000865af19150503d8060008114610209576040519150601f19603f3d011682016040523d82523d6000602084013e61020e565b606091505b50509050806102505760405162461bcd60e51b815260206004820152600e60248201526d0c6c2d8d840ccc2d2d8cac84074560931b6044820152606401610119565b505050565b3330146102a45760405162461bcd60e51b815260206004820152601f60248201527f4f6e6c792074686520636f6e74726163742063616e2063616c6c2074686973006044820152606401610119565b6000805460ff19166001179055565b60405180602001604052806001906020820280368337509192915050565b634e487b7160e01b600052604160045260246000fd5b6000602082840312156102f957600080fd5b813567ffffffffffffffff8082111561031157600080fd5b818401915084601f83011261032557600080fd5b813581811115610337576103376102d1565b604051601f8201601f19908116603f0116810190838211818310171561035f5761035f6102d1565b8160405282815287602084870101111561037857600080fd5b826020860160208301376000928101602001929092525095945050505050565b6000825160005b818110156103b9576020818601810151858301520161039f565b50600092019182525091905056fea2646970667358221220fa159b402953f7d895e2e67f3f010c51183ebd3cddc79691225c2e7ce93c7e9a64736f6c63430008160033",
    "linkReferences": {}
  },
  "methodIdentifiers": {
    "flipSwitch(bytes)": "30c13ade",
    "offSelector()": "5a2cfa66",
    "switchOn()": "f9f8f895",
    "turnSwitchOff()": "20606e15",
    "turnSwitchOn()": "76227e12"
  },
  "id": 42
}