{
  "abi": [
    {
      "inputs": [
        {
          "internalType": "string",
          "name": "_name",
          "type": "string"
        },
        {
          "internalType": "address",
          "name": "_creator",
          "type": "address"
        },
        {
          "internalType": "uint256",
          "name": "_initialSupply",
          "type": "uint256"
        }
      ],
      "stateMutability": "nonpayable",
      "type": "constructor"
    },
    {
      "inputs": [
        {
          "internalType": "address",
          "name": "",
          "type": "address"
        }
      ],
      "name": "balances",
      "outputs": [
        {
          "internalType": "uint256",
          "name": "",
          "type": "uint256"
        }
      ],
      "stateMutability": "view",
      "type": "function"
    },
    {
      "inputs": [
        {
          "internalType": "address payable",
          "name": "to",
          "type": "address"
        }
      ],
      "name": "destroy",
      "outputs": [],
      "stateMutability": "nonpayable",
      "type": "function"
    },
    {
      "inputs": [],
      "name": "name",
      "outputs": [
        {
          "internalType": "string",
          "name": "",
          "type": "string"
        }
      ],
      "stateMutability": "view",
      "type": "function"
    },
    {
      "inputs": [
        {
          "internalType": "address",
          "name": "_to",
          "type": "address"
        },
        {
          "internalType": "uint256",
          "name": "_amount",
          "type": "uint256"
        }
      ],
      "name": "transfer",
      "outputs": [],
      "stateMutability": "nonpayable",
      "type": "function"
    },
    {
      "stateMutability": "payable",
      "type": "receive"
    }
  ],
  "bytecode": {
    "object": "0x608060405234801561001057600080fd5b5060405161066938038061066983398101604081905261002f9161008e565b600061003b84826101fc565b506001600160a01b03909116600090815260016020526040902055506102bb565b634e487b7160e01b600052604160045260246000fd5b80516001600160a01b038116811461008957600080fd5b919050565b6000806000606084860312156100a357600080fd5b83516001600160401b03808211156100ba57600080fd5b818601915086601f8301126100ce57600080fd5b8151818111156100e0576100e061005c565b604051601f8201601f19908116603f011681019083821181831017156101085761010861005c565b8160405282815260209350898484870101111561012457600080fd5b600091505b828210156101465784820184015181830185015290830190610129565b600084848301015280975050505061015f818701610072565b93505050604084015190509250925092565b600181811c9082168061018557607f821691505b6020821081036101a557634e487b7160e01b600052602260045260246000fd5b50919050565b601f8211156101f7576000816000526020600020601f850160051c810160208610156101d45750805b601f850160051c820191505b818110156101f3578281556001016101e0565b5050505b505050565b81516001600160401b038111156102155761021561005c565b610229816102238454610171565b846101ab565b602080601f83116001811461025e57600084156102465750858301515b600019600386901b1c1916600185901b1785556101f3565b600085815260208120601f198616915b8281101561028d5788860151825594840194600190910190840161026e565b50858210156102ab5787850151600019600388901b60f8161c191681555b5050505050600190811b01905550565b61039f806102ca6000396000f3fe6080604052600436106100425760003560e01c8062f55d9d1461007e57806306fdde03146100a057806327e235e3146100cb578063a9059cbb1461010657600080fd5b366100795761005234600a610235565b3360009081526001602052604081208054909190610071908490610252565b925050819055005b600080fd5b34801561008a57600080fd5b5061009e61009936600461027d565b610126565b005b3480156100ac57600080fd5b506100b5610132565b6040516100c291906102a1565b60405180910390f35b3480156100d757600080fd5b506100f86100e636600461027d565b60016020526000908152604090205481565b6040519081526020016100c2565b34801561011257600080fd5b5061009e6101213660046102f0565b6101c0565b806001600160a01b0316ff5b6000805461013f9061031c565b80601f016020809104026020016040519081016040528092919081815260200182805461016b9061031c565b80156101b85780601f1061018d576101008083540402835291602001916101b8565b820191906000526020600020905b81548152906001019060200180831161019b57829003601f168201915b505050505081565b336000908152600160205260409020548111156101dc57600080fd5b336000908152600160205260409020546101f7908290610356565b33600090815260016020526040808220929092556001600160a01b0393909316835290912055565b634e487b7160e01b600052601160045260246000fd5b808202811582820484141761024c5761024c61021f565b92915050565b8082018082111561024c5761024c61021f565b6001600160a01b038116811461027a57600080fd5b50565b60006020828403121561028f57600080fd5b813561029a81610265565b9392505050565b60006020808352835180602085015260005b818110156102cf578581018301518582016040015282016102b3565b506000604082860101526040601f19601f8301168501019250505092915050565b6000806040838503121561030357600080fd5b823561030e81610265565b946020939093013593505050565b600181811c9082168061033057607f821691505b60208210810361035057634e487b7160e01b600052602260045260246000fd5b50919050565b8181038181111561024c5761024c61021f56fea2646970667358221220009742b0f804251f2219cae9d870aaadf6ef42935e952c9c4defb4fce70bf0ec64736f6c63430008160033",
    "linkReferences": {}
  },
  "methodIdentifiers": {
    "balances(address)": "27e235e3",
    "destroy(address)": "00f55d9d",
    "name()": "06fdde03",
    "transfer(address,uint256)": "a9059cbb"
  },
  "id": 20
}