{
  "abi": [
    {
      "inputs": [
        {
          "internalType": "address",
          "name": "legacyToken",
          "type": "address"
        },
        {
          "internalType": "address",
          "name": "vaultAddress",
          "type": "address"
        },
        {
          "internalType": "address",
          "name": "fortaAddress",
          "type": "address"
        },
        {
          "internalType": "address",
          "name": "playerAddress",
          "type": "address"
        }
      ],
      "stateMutability": "nonpayable",
      "type": "constructor"
    },
    {
      "anonymous": false,
      "inputs": [
        {
          "indexed": true,
          "internalType": "address",
          "name": "owner",
          "type": "address"
        },
        {
          "indexed": true,
          "internalType": "address",
          "name": "spender",
          "type": "address"
        },
        {
          "indexed": false,
          "internalType": "uint256",
          "name": "value",
          "type": "uint256"
        }
      ],
      "name": "Approval",
      "type": "event"
    },
    {
      "anonymous": false,
      "inputs": [
        {
          "indexed": true,
          "internalType": "address",
          "name": "previousOwner",
          "type": "address"
        },
        {
          "indexed": true,
          "internalType": "address",
          "name": "newOwner",
          "type": "address"
        }
      ],
      "name": "OwnershipTransferred",
      "type": "event"
    },
    {
      "anonymous": false,
      "inputs": [
        {
          "indexed": true,
          "internalType": "address",
          "name": "from",
          "type": "address"
        },
        {
          "indexed": true,
          "internalType": "address",
          "name": "to",
          "type": "address"
        },
        {
          "indexed": false,
          "internalType": "uint256",
          "name": "value",
          "type": "uint256"
        }
      ],
      "name": "Transfer",
      "type": "event"
    },
    {
      "inputs": [
        {
          "internalType": "address",
          "name": "owner",
          "type": "address"
        },
        {
          "internalType": "address",
          "name": "spender",
          "type": "address"
        }
      ],
      "name": "allowance",
      "outputs": [
        {
          "internalType": "uint256",
          "name": "",
          "type": "uint256"
        }
      ],
      "stateMutability": "view",
      "type": "function"
    },
    {
      "inputs": [
        {
          "internalType": "address",
          "name": "spender",
          "type": "address"
        },
        {
          "internalType": "uint256",
          "name": "amount",
          "type": "uint256"
        }
      ],
      "name": "approve",
      "outputs": [
        {
          "internalType": "bool",
          "name": "",
          "type": "bool"
        }
      ],
      "stateMutability": "nonpayable",
      "type": "function"
    },
    {
      "inputs": [
        {
          "internalType": "address",
          "name": "account",
          "type": "address"
        }
      ],
      "name": "balanceOf",
      "outputs": [
        {
          "internalType": "uint256",
          "name": "",
          "type": "uint256"
        }
      ],
      "stateMutability": "view",
      "type": "function"
    },
    {
      "inputs": [],
      "name": "cryptoVault",
      "outputs": [
        {
          "internalType": "address",
          "name": "",
          "type": "address"
        }
      ],
      "stateMutability": "view",
      "type": "function"
    },
    {
      "inputs": [],
      "name": "decimals",
      "outputs": [
        {
          "internalType": "uint8",
          "name": "",
          "type": "uint8"
        }
      ],
      "stateMutability": "view",
      "type": "function"
    },
    {
      "inputs": [
        {
          "internalType": "address",
          "name": "spender",
          "type": "address"
        },
        {
          "internalType": "uint256",
          "name": "subtractedValue",
          "type": "uint256"
        }
      ],
      "name": "decreaseAllowance",
      "outputs": [
        {
          "internalType": "bool",
          "name": "",
          "type": "bool"
        }
      ],
      "stateMutability": "nonpayable",
      "type": "function"
    },
    {
      "inputs": [
        {
          "internalType": "address",
          "name": "to",
          "type": "address"
        },
        {
          "internalType": "uint256",
          "name": "value",
          "type": "uint256"
        },
        {
          "internalType": "address",
          "name": "origSender",
          "type": "address"
        }
      ],
      "name": "delegateTransfer",
      "outputs": [
        {
          "internalType": "bool",
          "name": "",
          "type": "bool"
        }
      ],
      "stateMutability": "nonpayable",
      "type": "function"
    },
    {
      "inputs": [],
      "name": "delegatedFrom",
      "outputs": [
        {
          "internalType": "address",
          "name": "",
          "type": "address"
        }
      ],
      "stateMutability": "view",
      "type": "function"
    },
    {
      "inputs": [],
      "name": "forta",
      "outputs": [
        {
          "internalType": "contract Forta",
          "name": "",
          "type": "address"
        }
      ],
      "stateMutability": "view",
      "type": "function"
    },
    {
      "inputs": [
        {
          "internalType": "address",
          "name": "spender",
          "type": "address"
        },
        {
          "internalType": "uint256",
          "name": "addedValue",
          "type": "uint256"
        }
      ],
      "name": "increaseAllowance",
      "outputs": [
        {
          "internalType": "bool",
          "name": "",
          "type": "bool"
        }
      ],
      "stateMutability": "nonpayable",
      "type": "function"
    },
    {
      "inputs": [],
      "name": "name",
      "outputs": [
        {
          "internalType": "string",
          "name": "",
          "type": "string"
        }
      ],
      "stateMutability": "view",
      "type": "function"
    },
    {
      "inputs": [],
      "name": "owner",
      "outputs": [
        {
          "internalType": "address",
          "name": "",
          "type": "address"
        }
      ],
      "stateMutability": "view",
      "type": "function"
    },
    {
      "inputs": [],
      "name": "player",
      "outputs": [
        {
          "internalType": "address",
          "name": "",
          "type": "address"
        }
      ],
      "stateMutability": "view",
      "type": "function"
    },
    {
      "inputs": [],
      "name": "renounceOwnership",
      "outputs": [],
      "stateMutability": "nonpayable",
      "type": "function"
    },
    {
      "inputs": [],
      "name": "symbol",
      "outputs": [
        {
          "internalType": "string",
          "name": "",
          "type": "string"
        }
      ],
      "stateMutability": "view",
      "type": "function"
    },
    {
      "inputs": [],
      "name": "totalSupply",
      "outputs": [
        {
          "internalType": "uint256",
          "name": "",
          "type": "uint256"
        }
      ],
      "stateMutability": "view",
      "type": "function"
    },
    {
      "inputs": [
        {
          "internalType": "address",
          "name": "to",
          "type": "address"
        },
        {
          "internalType": "uint256",
          "name": "amount",
          "type": "uint256"
        }
      ],
      "name": "transfer",
      "outputs": [
        {
          "internalType": "bool",
          "name": "",
          "type": "bool"
        }
      ],
      "stateMutability": "nonpayable",
      "type": "function"
    },
    {
      "inputs": [
        {
          "internalType": "address",
          "name": "from",
          "type": "address"
        },
        {
          "internalType": "address",
          "name": "to",
          "type": "address"
        },
        {
          "internalType": "uint256",
          "name": "amount",
          "type": "uint256"
        }
      ],
      "name": "transferFrom",
      "outputs": [
        {
          "internalType": "bool",
          "name": "",
          "type": "bool"
        }
      ],
      "stateMutability": "nonpayable",
      "type": "function"
    },
    {
      "inputs": [
        {
          "internalType": "address",
          "name": "newOwner",
          "type": "address"
        }
      ],
      "name": "transferOwnership",
      "outputs": [],
      "stateMutability": "nonpayable",
      "type": "function"
    }
  ],
  "bytecode": {
    "object": "0x60806040523480156200001157600080fd5b50604051620012ad380380620012ad83398101604081905262000034916200028a565b6040518060400160405280601581526020017f446f75626c65456e747279506f696e74546f6b656e00000000000000000000008152506040518060400160405280600381526020016211115560ea1b81525081600390816200009791906200038d565b506004620000a682826200038d565b505050620000c3620000bd6200012a60201b60201c565b6200012e565b600880546001600160a01b038087166001600160a01b0319928316179092556009805485841690831617905560078054848416908316179055600680549286169290911682179055620001209068056bc75e2d6310000062000180565b5050505062000481565b3390565b600580546001600160a01b038381166001600160a01b0319831681179093556040519116919082907f8be0079c531659141344cd1fd0a4f28419497f9722a3daafe3b4186f6b6457e090600090a35050565b6001600160a01b038216620001db5760405162461bcd60e51b815260206004820152601f60248201527f45524332303a206d696e7420746f20746865207a65726f206164647265737300604482015260640160405180910390fd5b8060026000828254620001ef919062000459565b90915550506001600160a01b038216600090815260208190526040812080548392906200021e90849062000459565b90915550506040518181526001600160a01b038316906000907fddf252ad1be2c89b69c2b068fc378daa952ba7f163c4a11628f55a4df523b3ef9060200160405180910390a35050565b505050565b80516001600160a01b03811681146200028557600080fd5b919050565b60008060008060808587031215620002a157600080fd5b620002ac856200026d565b9350620002bc602086016200026d565b9250620002cc604086016200026d565b9150620002dc606086016200026d565b905092959194509250565b634e487b7160e01b600052604160045260246000fd5b600181811c908216806200031257607f821691505b6020821081036200033357634e487b7160e01b600052602260045260246000fd5b50919050565b601f82111562000268576000816000526020600020601f850160051c81016020861015620003645750805b601f850160051c820191505b81811015620003855782815560010162000370565b505050505050565b81516001600160401b03811115620003a957620003a9620002e7565b620003c181620003ba8454620002fd565b8462000339565b602080601f831160018114620003f95760008415620003e05750858301515b600019600386901b1c1916600185901b17855562000385565b600085815260208120601f198616915b828110156200042a5788860151825594840194600190910190840162000409565b5085821015620004495787850151600019600388901b60f8161c191681555b5050505050600190811b01905550565b808201808211156200047b57634e487b7160e01b600052601160045260246000fd5b92915050565b610e1c80620004916000396000f3fe608060405234801561001057600080fd5b50600436106101215760003560e01c8063715018a6116100ad578063a9059cbb11610071578063a9059cbb1461025e578063d444d8a014610271578063d8670e1f14610284578063dd62ed3e14610297578063f2fde38b146102aa57600080fd5b8063715018a6146102155780638da5cb5b1461021f57806395d89b41146102305780639cd1a12114610238578063a457c2d71461024b57600080fd5b806326fe9951116100f457806326fe99511461018c578063313ce567146101b757806339509351146101c657806348db5f89146101d957806370a08231146101ec57600080fd5b806306fdde0314610126578063095ea7b31461014457806318160ddd1461016757806323b872dd14610179575b600080fd5b61012e6102bd565b60405161013b9190610ba5565b60405180910390f35b610157610152366004610c09565b61034f565b604051901515815260200161013b565b6002545b60405190815260200161013b565b610157610187366004610c35565b610369565b60085461019f906001600160a01b031681565b6040516001600160a01b03909116815260200161013b565b6040516012815260200161013b565b6101576101d4366004610c09565b61038d565b60075461019f906001600160a01b031681565b61016b6101fa366004610c76565b6001600160a01b031660009081526020819052604090205490565b61021d6103af565b005b6005546001600160a01b031661019f565b61012e6103c3565b610157610246366004610c9a565b6103d2565b610157610259366004610c09565b610660565b61015761026c366004610c09565b6106db565b60065461019f906001600160a01b031681565b60095461019f906001600160a01b031681565b61016b6102a5366004610cdc565b6106e9565b61021d6102b8366004610c76565b610714565b6060600380546102cc90610d15565b80601f01602080910402602001604051908101604052809291908181526020018280546102f890610d15565b80156103455780601f1061031a57610100808354040283529160200191610345565b820191906000526020600020905b81548152906001019060200180831161032857829003601f168201915b5050505050905090565b60003361035d81858561078d565b60019150505b92915050565b6000336103778582856108b1565b61038285858561092b565b506001949350505050565b60003361035d8185856103a083836106e9565b6103aa9190610d4f565b61078d565b6103b7610af9565b6103c16000610b53565b565b6060600480546102cc90610d15565b6008546000906001600160a01b0316331461042a5760405162461bcd60e51b8152602060048201526013602482015272139bdd081b1959d858de4818dbdb9d1c9858dd606a1b60448201526064015b60405180910390fd5b600954600754604051634f0841e560e11b81526001600160a01b0391821660048201526000929190911690639e1083ca90602401602060405180830381865afa15801561047b573d6000803e3d6000fd5b505050506040513d601f19601f8201168201806040525081019061049f9190610d70565b6009546040516306e3817d60e51b81526001600160a01b0380841660048301529293506000929091169063dc702fa090602401602060405180830381865afa1580156104ef573d6000803e3d6000fd5b505050506040513d601f19601f820116820180604052508101906105139190610d8d565b600954600754604051633e87f4a360e21b81529293506001600160a01b039182169263fa1fd28c9261054e9216906000903690600401610da6565b600060405180830381600087803b15801561056857600080fd5b505af115801561057c573d6000803e3d6000fd5b5050505061058b84878761092b565b6009546040516306e3817d60e51b81526001600160a01b038481166004830152600195508392169063dc702fa090602401602060405180830381865afa1580156105d9573d6000803e3d6000fd5b505050506040513d601f19601f820116820180604052508101906105fd9190610d8d565b11156106575760405162461bcd60e51b815260206004820152602360248201527f416c65727420686173206265656e207472696767657265642c20726576657274604482015262696e6760e81b6064820152608401610421565b50509392505050565b6000338161066e82866106e9565b9050838110156106ce5760405162461bcd60e51b815260206004820152602560248201527f45524332303a2064656372656173656420616c6c6f77616e63652062656c6f77604482015264207a65726f60d81b6064820152608401610421565b610382828686840361078d565b60003361035d81858561092b565b6001600160a01b03918216600090815260016020908152604080832093909416825291909152205490565b61071c610af9565b6001600160a01b0381166107815760405162461bcd60e51b815260206004820152602660248201527f4f776e61626c653a206e6577206f776e657220697320746865207a65726f206160448201526564647265737360d01b6064820152608401610421565b61078a81610b53565b50565b6001600160a01b0383166107ef5760405162461bcd60e51b8152602060048201526024808201527f45524332303a20617070726f76652066726f6d20746865207a65726f206164646044820152637265737360e01b6064820152608401610421565b6001600160a01b0382166108505760405162461bcd60e51b815260206004820152602260248201527f45524332303a20617070726f766520746f20746865207a65726f206164647265604482015261737360f01b6064820152608401610421565b6001600160a01b0383811660008181526001602090815260408083209487168084529482529182902085905590518481527f8c5be1e5ebec7d5bd14f71427d1e84f3dd0314c0f7b2291e5b200ac8c7c3b925910160405180910390a3505050565b60006108bd84846106e9565b9050600019811461092557818110156109185760405162461bcd60e51b815260206004820152601d60248201527f45524332303a20696e73756666696369656e7420616c6c6f77616e63650000006044820152606401610421565b610925848484840361078d565b50505050565b6001600160a01b03831661098f5760405162461bcd60e51b815260206004820152602560248201527f45524332303a207472616e736665722066726f6d20746865207a65726f206164604482015264647265737360d81b6064820152608401610421565b6001600160a01b0382166109f15760405162461bcd60e51b815260206004820152602360248201527f45524332303a207472616e7366657220746f20746865207a65726f206164647260448201526265737360e81b6064820152608401610421565b6001600160a01b03831660009081526020819052604090205481811015610a695760405162461bcd60e51b815260206004820152602660248201527f45524332303a207472616e7366657220616d6f756e7420657863656564732062604482015265616c616e636560d01b6064820152608401610421565b6001600160a01b03808516600090815260208190526040808220858503905591851681529081208054849290610aa0908490610d4f565b92505081905550826001600160a01b0316846001600160a01b03167fddf252ad1be2c89b69c2b068fc378daa952ba7f163c4a11628f55a4df523b3ef84604051610aec91815260200190565b60405180910390a3610925565b6005546001600160a01b031633146103c15760405162461bcd60e51b815260206004820181905260248201527f4f776e61626c653a2063616c6c6572206973206e6f7420746865206f776e65726044820152606401610421565b600580546001600160a01b038381166001600160a01b0319831681179093556040519116919082907f8be0079c531659141344cd1fd0a4f28419497f9722a3daafe3b4186f6b6457e090600090a35050565b60006020808352835180602085015260005b81811015610bd357858101830151858201604001528201610bb7565b506000604082860101526040601f19601f8301168501019250505092915050565b6001600160a01b038116811461078a57600080fd5b60008060408385031215610c1c57600080fd5b8235610c2781610bf4565b946020939093013593505050565b600080600060608486031215610c4a57600080fd5b8335610c5581610bf4565b92506020840135610c6581610bf4565b929592945050506040919091013590565b600060208284031215610c8857600080fd5b8135610c9381610bf4565b9392505050565b600080600060608486031215610caf57600080fd5b8335610cba81610bf4565b9250602084013591506040840135610cd181610bf4565b809150509250925092565b60008060408385031215610cef57600080fd5b8235610cfa81610bf4565b91506020830135610d0a81610bf4565b809150509250929050565b600181811c90821680610d2957607f821691505b602082108103610d4957634e487b7160e01b600052602260045260246000fd5b50919050565b8082018082111561036357634e487b7160e01b600052601160045260246000fd5b600060208284031215610d8257600080fd5b8151610c9381610bf4565b600060208284031215610d9f57600080fd5b5051919050565b6001600160a01b03841681526040602082018190528101829052818360608301376000818301606090810191909152601f909201601f191601019291505056fea264697066735822122069a323bfe9a86a8e0210b9a1004628d813ae9ccd8fa0eb4234b687d4cd7f119864736f6c63430008160033",
    "linkReferences": {}
  },
  "methodIdentifiers": {
    "allowance(address,address)": "dd62ed3e",
    "approve(address,uint256)": "095ea7b3",
    "balanceOf(address)": "70a08231",
    "cryptoVault()": "d444d8a0",
    "decimals()": "313ce567",
    "decreaseAllowance(address,uint256)": "a457c2d7",
    "delegateTransfer(address,uint256,address)": "9cd1a121",
    "delegatedFrom()": "26fe9951",
    "forta()": "d8670e1f",
    "increaseAllowance(address,uint256)": "39509351",
    "name()": "06fdde03",
    "owner()": "8da5cb5b",
    "player()": "48db5f89",
    "renounceOwnership()": "715018a6",
    "symbol()": "95d89b41",
    "totalSupply()": "18160ddd",
    "transfer(address,uint256)": "a9059cbb",
    "transferFrom(address,address,uint256)": "23b872dd",
    "transferOwnership(address)": "f2fde38b"
  },
  "id": 36
}