{
  "abi": [
    {
      "inputs": [
        {
          "internalType": "bytes32",
          "name": "_password",
          "type": "bytes32"
        }
      ],
      "stateMutability": "nonpayable",
      "type": "constructor"
    },
    {
      "inputs": [],
      "name": "locked",
      "outputs": [
        {
          "internalType": "bool",
          "name": "",
          "type": "bool"
        }
      ],
      "stateMutability": "view",
      "type": "function"
    },
    {
      "inputs": [
        {
          "internalType": "bytes32",
          "name": "_password",
          "type": "bytes32"
        }
      ],
      "name": "unlock",
      "outputs": [],
      "stateMutability": "nonpayable",
      "type": "function"
    }
  ],
  "bytecode": {
    "object": "0x608060405234801561001057600080fd5b5060405161013838038061013883398101604081905261002f91610045565b6000805460ff191660019081179091555561005e565b60006020828403121561005757600080fd5b5051919050565b60cc8061006c6000396000f3fe6080604052348015600f57600080fd5b506004361060325760003560e01c8063cf309012146037578063ec9b5b3a146057575b600080fd5b60005460439060ff1681565b604051901515815260200160405180910390f35b60666062366004607e565b6068565b005b8060015403607b576000805460ff191690555b50565b600060208284031215608f57600080fd5b503591905056fea2646970667358221220ac3357a8d5e6809cedd5f058bcfe03c63b4b2a92d25ad664a92d65cddaf34a0564736f6c63430008160033",
    "linkReferences": {}
  },
  "methodIdentifiers": {
    "locked()": "cf309012",
    "unlock(bytes32)": "ec9b5b3a"
  },
  "id": 54
}