{
  "abi": [
    {
      "inputs": [],
      "stateMutability": "nonpayable",
      "type": "constructor"
    },
    {
      "inputs": [],
      "name": "consecutiveWins",
      "outputs": [
        {
          "internalType": "uint256",
          "name": "",
          "type": "uint256"
        }
      ],
      "stateMutability": "view",
      "type": "function"
    },
    {
      "inputs": [
        {
          "internalType": "bool",
          "name": "_guess",
          "type": "bool"
        }
      ],
      "name": "flip",
      "outputs": [
        {
          "internalType": "bool",
          "name": "",
          "type": "bool"
        }
      ],
      "stateMutability": "nonpayable",
      "type": "function"
    }
  ],
  "bytecode": {
    "object": "0x6080604052600160ff1b60025534801561001857600080fd5b50600080556101ca8061002c6000396000f3fe608060405234801561001057600080fd5b50600436106100365760003560e01c80631d263f671461003b578063e6f334d714610063575b600080fd5b61004e610049366004610101565b61007a565b60405190151581526020015b60405180910390f35b61006c60005481565b60405190815260200161005a565b600080610088600143610140565b4060001c9050806001540361009c57600080fd5b60018190556002546000906100b19083610159565b90506000816001146100c45760006100c7565b60015b9050841515811515036100f3576000805490806100e38361017b565b9091555060019695505050505050565b505060008080559392505050565b60006020828403121561011357600080fd5b8135801515811461012357600080fd5b9392505050565b634e487b7160e01b600052601160045260246000fd5b818103818111156101535761015361012a565b92915050565b60008261017657634e487b7160e01b600052601260045260246000fd5b500490565b60006001820161018d5761018d61012a565b506001019056fea2646970667358221220d52d35a61851dc6bdf84f8e578154e7e433c7b85f3a856a4d7e3619a045ddbd864736f6c63430008160033",
    "linkReferences": {}
  },
  "methodIdentifiers": {
    "consecutiveWins()": "e6f334d7",
    "flip(bool)": "1d263f67"
  },
  "id": 44
}