{
  "abi": [
    {
      "inputs": [
        {
          "internalType": "uint256",
          "name": "_time",
          "type": "uint256"
        }
      ],
      "name": "setTime",
      "outputs": [],
      "stateMutability": "nonpayable",
      "type": "function"
    }
  ],
  "bytecode": {
    "object": "0x6080604052348015600f57600080fd5b50608d8061001e6000396000f3fe6080604052348015600f57600080fd5b506004361060285760003560e01c80633beb26c414602d575b600080fd5b603d6038366004603f565b600055565b005b600060208284031215605057600080fd5b503591905056fea264697066735822122059a87aa35933dd8d2c199cac8e3f518d0f01d77ede05b19ae69a21c1a9d9c3bd64736f6c63430008160033",
    "linkReferences": {}
  },
  "methodIdentifiers": {
    "setTime(uint256)": "3beb26c4"
  },
  "id": 16
}