{
  "abi": [
    {
      "inputs": [
        {
          "internalType": "address",
          "name": "_timeZone1LibraryAddress",
          "type": "address"
        },
        {
          "internalType": "address",
          "name": "_timeZone2LibraryAddress",
          "type": "address"
        }
      ],
      "stateMutability": "nonpayable",
      "type": "constructor"
    },
    {
      "inputs": [],
      "name": "owner",
      "outputs": [
        {
          "internalType": "address",
          "name": "",
          "type": "address"
        }
      ],
      "stateMutability": "view",
      "type": "function"
    },
    {
      "inputs": [
        {
          "internalType": "uint256",
          "name": "_timeStamp",
          "type": "uint256"
        }
      ],
      "name": "setFirstTime",
      "outputs": [],
      "stateMutability": "nonpayable",
      "type": "function"
    },
    {
      "inputs": [
        {
          "internalType": "uint256",
          "name": "_timeStamp",
          "type": "uint256"
        }
      ],
      "name": "setSecondTime",
      "outputs": [],
      "stateMutability": "nonpayable",
      "type": "function"
    },
    {
      "inputs": [],
      "name": "timeZone1Library",
      "outputs": [
        {
          "internalType": "address",
          "name": "",
          "type": "address"
        }
      ],
      "stateMutability": "view",
      "type": "function"
    },
    {
      "inputs": [],
      "name": "timeZone2Library",
      "outputs": [
        {
          "internalType": "address",
          "name": "",
          "type": "address"
        }
      ],
      "stateMutability": "view",
      "type": "function"
    }
  ],
  "bytecode": {
    "object": "0x608060405234801561001057600080fd5b506040516102dd3803806102dd83398101604081905261002f9161008c565b600080546001600160a01b039384166001600160a01b03199182161790915560018054929093169181169190911790915560028054909116331790556100bf565b80516001600160a01b038116811461008757600080fd5b919050565b6000806040838503121561009f57600080fd5b6100a883610070565b91506100b660208401610070565b90509250929050565b61020f806100ce6000396000f3fe608060405234801561001057600080fd5b50600436106100575760003560e01c806327d6974f1461005c5780633dc794221461008b5780635bda8fa41461009e5780638da5cb5b146100b3578063f1e02620146100c6575b600080fd5b60015461006f906001600160a01b031681565b6040516001600160a01b03909116815260200160405180910390f35b60005461006f906001600160a01b031681565b6100b16100ac366004610191565b6100d9565b005b60025461006f906001600160a01b031681565b6100b16100d4366004610191565b610163565b600154604051630efac9b160e21b6020820152602481018390526001600160a01b03909116906044015b60408051601f198184030181529082905261011d916101aa565b600060405180830381855af49150503d8060008114610158576040519150601f19603f3d011682016040523d82523d6000602084013e61015d565b606091505b50505050565b600054604051630efac9b160e21b6020820152602481018390526001600160a01b0390911690604401610103565b6000602082840312156101a357600080fd5b5035919050565b6000825160005b818110156101cb57602081860181015185830152016101b1565b50600092019182525091905056fea264697066735822122076d418d5f38d6b57e335fcbb2c0368042e1df49d35ac6ae0c0361be3b4b4c71d64736f6c63430008160033",
    "linkReferences": {}
  },
  "methodIdentifiers": {
    "owner()": "8da5cb5b",
    "setFirstTime(uint256)": "f1e02620",
    "setSecondTime(uint256)": "5bda8fa4",
    "timeZone1Library()": "3dc79422",
    "timeZone2Library()": "27d6974f"
  },
  "id": 16
}