{
  "abi": [
    {
      "inputs": [],
      "stateMutability": "payable",
      "type": "constructor"
    },
    {
      "inputs": [],
      "name": "_king",
      "outputs": [
        {
          "internalType": "address",
          "name": "",
          "type": "address"
        }
      ],
      "stateMutability": "view",
      "type": "function"
    },
    {
      "inputs": [],
      "name": "owner",
      "outputs": [
        {
          "internalType": "address",
          "name": "",
          "type": "address"
        }
      ],
      "stateMutability": "view",
      "type": "function"
    },
    {
      "inputs": [],
      "name": "prize",
      "outputs": [
        {
          "internalType": "uint256",
          "name": "",
          "type": "uint256"
        }
      ],
      "stateMutability": "view",
      "type": "function"
    },
    {
      "stateMutability": "payable",
      "type": "receive"
    }
  ],
  "bytecode": {
    "object": "0x6080604052600280546001600160a01b0319908116339081179092556000805490911690911790553460015561016c8061003a6000396000f3fe6080604052600436106100385760003560e01c806329cc6d6f146100bb5780638da5cb5b146100f2578063e3ac5d261461011257600080fd5b366100b6576001543410158061005857506002546001600160a01b031633145b61006157600080fd5b600080546040516001600160a01b03909116913480156108fc02929091818181858888f1935050505015801561009b573d6000803e3d6000fd5b50600080546001600160a01b03191633179055346001819055005b600080fd5b3480156100c757600080fd5b506000546001600160a01b03165b6040516001600160a01b0390911681526020015b60405180910390f35b3480156100fe57600080fd5b506002546100d5906001600160a01b031681565b34801561011e57600080fd5b5061012860015481565b6040519081526020016100e956fea2646970667358221220515776c598aa06922c06e0da8f39a620efeef15348d073da28a3157228a58a1e64736f6c63430008160033",
    "linkReferences": {}
  },
  "methodIdentifiers": {
    "_king()": "29cc6d6f",
    "owner()": "8da5cb5b",
    "prize()": "e3ac5d26"
  },
  "id": 56
}