{
  "abi": [
    {
      "anonymous": false,
      "inputs": [
        {
          "indexed": true,
          "internalType": "address",
          "name": "previousOwner",
          "type": "address"
        },
        {
          "indexed": true,
          "internalType": "address",
          "name": "newOwner",
          "type": "address"
        }
      ],
      "name": "OwnershipTransferred",
      "type": "event"
    },
    {
      "inputs": [
        {
          "internalType": "address",
          "name": "_player",
          "type": "address"
        }
      ],
      "name": "createInstance",
      "outputs": [
        {
          "internalType": "address",
          "name": "",
          "type": "address"
        }
      ],
      "stateMutability": "payable",
      "type": "function"
    },
    {
      "inputs": [],
      "name": "insertCoin",
      "outputs": [
        {
          "internalType": "uint256",
          "name": "",
          "type": "uint256"
        }
      ],
      "stateMutability": "view",
      "type": "function"
    },
    {
      "inputs": [],
      "name": "owner",
      "outputs": [
        {
          "internalType": "address",
          "name": "",
          "type": "address"
        }
      ],
      "stateMutability": "view",
      "type": "function"
    },
    {
      "inputs": [],
      "name": "renounceOwnership",
      "outputs": [],
      "stateMutability": "nonpayable",
      "type": "function"
    },
    {
      "inputs": [
        {
          "internalType": "address",
          "name": "newOwner",
          "type": "address"
        }
      ],
      "name": "transferOwnership",
      "outputs": [],
      "stateMutability": "nonpayable",
      "type": "function"
    },
    {
      "inputs": [
        {
          "internalType": "address payable",
          "name": "_instance",
          "type": "address"
        },
        {
          "internalType": "address",
          "name": "_player",
          "type": "address"
        }
      ],
      "name": "validateInstance",
      "outputs": [
        {
          "internalType": "bool",
          "name": "",
          "type": "bool"
        }
      ],
      "stateMutability": "nonpayable",
      "type": "function"
    },
    {
      "stateMutability": "payable",
      "type": "receive"
    }
  ],
  "bytecode": {
    "object": "0x608060405266038d7ea4c6800060015534801561001b57600080fd5b506100253361002a565b61007a565b600080546001600160a01b038381166001600160a01b0319831681178455604051919092169283917f8be0079c531659141344cd1fd0a4f28419497f9722a3daafe3b4186f6b6457e09190a35050565b61064f806100896000396000f3fe6080604052600436106100595760003560e01c8063715018a6146100655780637726f7761461007c5780638da5cb5b146100ac57806390696af9146100ca578063d38def5b146100ee578063f2fde38b1461011e57600080fd5b3661006057005b600080fd5b34801561007157600080fd5b5061007a61013e565b005b61008f61008a3660046103f9565b610152565b6040516001600160a01b0390911681526020015b60405180910390f35b3480156100b857600080fd5b506000546001600160a01b031661008f565b3480156100d657600080fd5b506100e060015481565b6040519081526020016100a3565b3480156100fa57600080fd5b5061010e61010936600461041d565b6101dc565b60405190151581526020016100a3565b34801561012a57600080fd5b5061007a6101393660046103f9565b6102b4565b61014661032d565b6101506000610387565b565b60006001543410156101ab5760405162461bcd60e51b815260206004820152601c60248201527f4d7573742073656e64206174206c6561737420302e303031204554480000000060448201526064015b60405180910390fd5b346040516101b8906103d7565b6040518091039082f09050801580156101d5573d6000803e3d6000fd5b5092915050565b604051600090839082906001600160a01b0383169082908181818181875af1925050503d806000811461022b576040519150601f19603f3d011682016040523d82523d6000602084013e610230565b606091505b50509050306001600160a01b0316826001600160a01b03166329cc6d6f6040518163ffffffff1660e01b8152600401602060405180830381865afa15801561027c573d6000803e3d6000fd5b505050506040513d601f19601f820116820180604052508101906102a09190610456565b6001600160a01b0316141595945050505050565b6102bc61032d565b6001600160a01b0381166103215760405162461bcd60e51b815260206004820152602660248201527f4f776e61626c653a206e6577206f776e657220697320746865207a65726f206160448201526564647265737360d01b60648201526084016101a2565b61032a81610387565b50565b6000546001600160a01b031633146101505760405162461bcd60e51b815260206004820181905260248201527f4f776e61626c653a2063616c6c6572206973206e6f7420746865206f776e657260448201526064016101a2565b600080546001600160a01b038381166001600160a01b0319831681178455604051919092169283917f8be0079c531659141344cd1fd0a4f28419497f9722a3daafe3b4186f6b6457e09190a35050565b6101a68061047483390190565b6001600160a01b038116811461032a57600080fd5b60006020828403121561040b57600080fd5b8135610416816103e4565b9392505050565b6000806040838503121561043057600080fd5b823561043b816103e4565b9150602083013561044b816103e4565b809150509250929050565b60006020828403121561046857600080fd5b8151610416816103e456fe6080604052600280546001600160a01b0319908116339081179092556000805490911690911790553460015561016c8061003a6000396000f3fe6080604052600436106100385760003560e01c806329cc6d6f146100bb5780638da5cb5b146100f2578063e3ac5d261461011257600080fd5b366100b6576001543410158061005857506002546001600160a01b031633145b61006157600080fd5b600080546040516001600160a01b03909116913480156108fc02929091818181858888f1935050505015801561009b573d6000803e3d6000fd5b50600080546001600160a01b03191633179055346001819055005b600080fd5b3480156100c757600080fd5b506000546001600160a01b03165b6040516001600160a01b0390911681526020015b60405180910390f35b3480156100fe57600080fd5b506002546100d5906001600160a01b031681565b34801561011e57600080fd5b5061012860015481565b6040519081526020016100e956fea2646970667358221220515776c598aa06922c06e0da8f39a620efeef15348d073da28a3157228a58a1e64736f6c63430008160033a2646970667358221220eaeaa9da38308adf3203f5a6f9bfb663f2e3c6cf25b194b41eadadd4ff7e2d5e64736f6c63430008160033",
    "linkReferences": {}
  },
  "methodIdentifiers": {
    "createInstance(address)": "7726f776",
    "insertCoin()": "90696af9",
    "owner()": "8da5cb5b",
    "renounceOwnership()": "715018a6",
    "transferOwnership(address)": "f2fde38b",
    "validateInstance(address,address)": "d38def5b"
  },
  "id": 57
}