{
  "abi": [
    {
      "inputs": [
        {
          "internalType": "bytes32[3]",
          "name": "_data",
          "type": "bytes32[3]"
        }
      ],
      "stateMutability": "nonpayable",
      "type": "constructor"
    },
    {
      "inputs": [],
      "name": "ID",
      "outputs": [
        {
          "internalType": "uint256",
          "name": "",
          "type": "uint256"
        }
      ],
      "stateMutability": "view",
      "type": "function"
    },
    {
      "inputs": [],
      "name": "locked",
      "outputs": [
        {
          "internalType": "bool",
          "name": "",
          "type": "bool"
        }
      ],
      "stateMutability": "view",
      "type": "function"
    },
    {
      "inputs": [
        {
          "internalType": "bytes16",
          "name": "_key",
          "type": "bytes16"
        }
      ],
      "name": "unlock",
      "outputs": [],
      "stateMutability": "nonpayable",
      "type": "function"
    }
  ],
  "bytecode": {
    "object": "0x60806040526000805460ff1916600190811790915542908190556002805461ffff909216620100000263ffffffff199092169190911761ff0a17905534801561004757600080fd5b5060405161027a38038061027a833981016040819052610066916100cc565b61007260038281610079565b5050610157565b82600381019282156100a7579160200282015b828111156100a757825182559160200191906001019061008c565b506100b39291506100b7565b5090565b5b808211156100b357600081556001016100b8565b6000606082840312156100de57600080fd5b82601f8301126100ed57600080fd5b604051606081016001600160401b038111828210171561011d57634e487b7160e01b600052604160045260246000fd5b60405280606084018581111561013257600080fd5b845b8181101561014c578051835260209283019201610134565b509195945050505050565b610114806101666000396000f3fe6080604052348015600f57600080fd5b5060043610603c5760003560e01c8063b3cea217146041578063cf30901214605c578063e1afb08c146077575b600080fd5b604960015481565b6040519081526020015b60405180910390f35b60005460689060ff1681565b60405190151581526020016053565b6086608236600460af565b6088565b005b6005546001600160801b031982811691161460a257600080fd5b506000805460ff19169055565b60006020828403121560c057600080fd5b81356001600160801b03198116811460d757600080fd5b939250505056fea2646970667358221220786fe46b023516d5ad232b6315b718b5071d0c735671445e53dd6cb403c294cc64736f6c63430008160033",
    "linkReferences": {}
  },
  "methodIdentifiers": {
    "ID()": "b3cea217",
    "locked()": "cf309012",
    "unlock(bytes16)": "e1afb08c"
  },
  "id": 8
}