{
  "abi": [
    {
      "anonymous": false,
      "inputs": [
        {
          "indexed": true,
          "internalType": "address",
          "name": "previousOwner",
          "type": "address"
        },
        {
          "indexed": true,
          "internalType": "address",
          "name": "newOwner",
          "type": "address"
        }
      ],
      "name": "OwnershipTransferred",
      "type": "event"
    },
    {
      "inputs": [
        {
          "internalType": "address",
          "name": "_player",
          "type": "address"
        }
      ],
      "name": "createInstance",
      "outputs": [
        {
          "internalType": "address",
          "name": "",
          "type": "address"
        }
      ],
      "stateMutability": "payable",
      "type": "function"
    },
    {
      "inputs": [],
      "name": "initialDeposit",
      "outputs": [
        {
          "internalType": "uint256",
          "name": "",
          "type": "uint256"
        }
      ],
      "stateMutability": "view",
      "type": "function"
    },
    {
      "inputs": [],
      "name": "owner",
      "outputs": [
        {
          "internalType": "address",
          "name": "",
          "type": "address"
        }
      ],
      "stateMutability": "view",
      "type": "function"
    },
    {
      "inputs": [],
      "name": "renounceOwnership",
      "outputs": [],
      "stateMutability": "nonpayable",
      "type": "function"
    },
    {
      "inputs": [
        {
          "internalType": "address",
          "name": "newOwner",
          "type": "address"
        }
      ],
      "name": "transferOwnership",
      "outputs": [],
      "stateMutability": "nonpayable",
      "type": "function"
    },
    {
      "inputs": [
        {
          "internalType": "address payable",
          "name": "_instance",
          "type": "address"
        },
        {
          "internalType": "address",
          "name": "_player",
          "type": "address"
        }
      ],
      "name": "validateInstance",
      "outputs": [
        {
          "internalType": "bool",
          "name": "",
          "type": "bool"
        }
      ],
      "stateMutability": "nonpayable",
      "type": "function"
    },
    {
      "stateMutability": "payable",
      "type": "receive"
    }
  ],
  "bytecode": {
    "object": "0x608060405266038d7ea4c6800060015534801561001b57600080fd5b506100253361002a565b61007a565b600080546001600160a01b038381166001600160a01b0319831681178455604051919092169283917f8be0079c531659141344cd1fd0a4f28419497f9722a3daafe3b4186f6b6457e09190a35050565b61076a806100896000396000f3fe6080604052600436106100595760003560e01c8063715018a6146100655780637726f7761461007c5780638da5cb5b146100ac578063d38def5b146100ca578063e037f889146100fa578063f2fde38b1461011e57600080fd5b3661006057005b600080fd5b34801561007157600080fd5b5061007a61013e565b005b61008f61008a3660046103f7565b610152565b6040516001600160a01b0390911681526020015b60405180910390f35b3480156100b857600080fd5b506000546001600160a01b031661008f565b3480156100d657600080fd5b506100ea6100e536600461041b565b6101f7565b60405190151581526020016100a3565b34801561010657600080fd5b5061011060015481565b6040519081526020016100a3565b34801561012a57600080fd5b5061007a6101393660046103f7565b6102ad565b61014661032b565b6101506000610385565b565b600060015434101561016357600080fd5b6000604051610171906103d5565b604051809103906000f08015801561018d573d6000803e3d6000fd5b5090506000816001600160a01b03163460405160006040518083038185875af1925050503d80600081146101dd576040519150601f19603f3d011682016040523d82523d6000602084013e6101e2565b606091505b50509050806101f057600080fd5b5092915050565b60008260646001600160a01b03821631116102165760009150506102a7565b60408051600481526024810182526020810180516001600160e01b0316633ccfd60b60e01b17905290516000916001600160a01b03841691620f42409161025c91610454565b60006040518083038160008787f1925050503d806000811461029a576040519150601f19603f3d011682016040523d82523d6000602084013e61029f565b606091505b505015925050505b92915050565b6102b561032b565b6001600160a01b03811661031f5760405162461bcd60e51b815260206004820152602660248201527f4f776e61626c653a206e6577206f776e657220697320746865207a65726f206160448201526564647265737360d01b60648201526084015b60405180910390fd5b61032881610385565b50565b6000546001600160a01b031633146101505760405162461bcd60e51b815260206004820181905260248201527f4f776e61626c653a2063616c6c6572206973206e6f7420746865206f776e65726044820152606401610316565b600080546001600160a01b038381166001600160a01b0319831681178455604051919092169283917f8be0079c531659141344cd1fd0a4f28419497f9722a3daafe3b4186f6b6457e09190a35050565b6102b18061048483390190565b6001600160a01b038116811461032857600080fd5b60006020828403121561040957600080fd5b8135610414816103e2565b9392505050565b6000806040838503121561042e57600080fd5b8235610439816103e2565b91506020830135610449816103e2565b809150509250929050565b6000825160005b81811015610475576020818601810151858301520161045b565b50600092019182525091905056fe608060405234801561001057600080fd5b50610291806100206000396000f3fe60806040526004361061004e5760003560e01c80633ccfd60b1461005a5780634e1c5914146100715780638b7afe2e146100ae5780638da5cb5b146100ce578063be10862b146100fc57600080fd5b3661005557005b600080fd5b34801561006657600080fd5b5061006f61011c565b005b34801561007d57600080fd5b5061006f61008c3660046101e2565b600080546001600160a01b0319166001600160a01b0392909216919091179055565b3480156100ba57600080fd5b506040514781526020015b60405180910390f35b3480156100da57600080fd5b506100e4610a9e81565b6040516001600160a01b0390911681526020016100c5565b34801561010857600080fd5b506000546100e4906001600160a01b031681565b6000610129606447610212565b600080546040519293506001600160a01b031691839181818185875af1925050503d8060008114610176576040519150601f19603f3d011682016040523d82523d6000602084013e61017b565b606091505b5050604051610a9e915082156108fc029083906000818181858888f193505050501580156101ad573d6000803e3d6000fd5b5042600155600080546001600160a01b0316815260026020526040812080548392906101da908490610234565b909155505050565b6000602082840312156101f457600080fd5b81356001600160a01b038116811461020b57600080fd5b9392505050565b60008261022f57634e487b7160e01b600052601260045260246000fd5b500490565b8082018082111561025557634e487b7160e01b600052601160045260246000fd5b9291505056fea2646970667358221220411813c999cfea40661952246f16bceb60a5ef1a225509759bc9b741f12895d964736f6c63430008160033a2646970667358221220242c326b35fd4c1edd6898872069ec25b1d5bee767ea09479c8f6fff1ec3eb2164736f6c63430008160033",
    "linkReferences": {}
  },
  "methodIdentifiers": {
    "createInstance(address)": "7726f776",
    "initialDeposit()": "e037f889",
    "owner()": "8da5cb5b",
    "renounceOwnership()": "715018a6",
    "transferOwnership(address)": "f2fde38b",
    "validateInstance(address,address)": "d38def5b"
  },
  "id": 26
}