{
  "abi": [
    {
      "inputs": [
        {
          "internalType": "string",
          "name": "_name",
          "type": "string"
        },
        {
          "internalType": "uint256",
          "name": "_initialSupply",
          "type": "uint256"
        }
      ],
      "name": "generateToken",
      "outputs": [],
      "stateMutability": "nonpayable",
      "type": "function"
    }
  ],
  "bytecode": {
    "object": "0x608060405234801561001057600080fd5b50610839806100206000396000f3fe608060405234801561001057600080fd5b506004361061002b5760003560e01c80633894e51614610030575b600080fd5b61004361003e3660046100a5565b610045565b005b81338260405161005490610082565b6100609392919061015a565b604051809103906000f08015801561007c573d6000803e3d6000fd5b50505050565b610643806101c183390190565b634e487b7160e01b600052604160045260246000fd5b600080604083850312156100b857600080fd5b823567ffffffffffffffff808211156100d057600080fd5b818501915085601f8301126100e457600080fd5b8135818111156100f6576100f661008f565b604051601f8201601f19908116603f0116810190838211818310171561011e5761011e61008f565b8160405282815288602084870101111561013757600080fd5b826020860160208301376000602093820184015298969091013596505050505050565b606081526000845180606084015260005b81811015610188576020818801810151608086840101520161016b565b50600060808285018101919091526001600160a01b03959095166020840152604083019390935250601f909101601f1916010191905056fe608060405234801561001057600080fd5b5060405161064338038061064383398101604081905261002f9161008e565b600061003b84826101fc565b506001600160a01b03909116600090815260016020526040902055506102bb565b634e487b7160e01b600052604160045260246000fd5b80516001600160a01b038116811461008957600080fd5b919050565b6000806000606084860312156100a357600080fd5b83516001600160401b03808211156100ba57600080fd5b818601915086601f8301126100ce57600080fd5b8151818111156100e0576100e061005c565b604051601f8201601f19908116603f011681019083821181831017156101085761010861005c565b8160405282815260209350898484870101111561012457600080fd5b600091505b828210156101465784820184015181830185015290830190610129565b600084848301015280975050505061015f818701610072565b93505050604084015190509250925092565b600181811c9082168061018557607f821691505b6020821081036101a557634e487b7160e01b600052602260045260246000fd5b50919050565b601f8211156101f7576000816000526020600020601f850160051c810160208610156101d45750805b601f850160051c820191505b818110156101f3578281556001016101e0565b5050505b505050565b81516001600160401b038111156102155761021561005c565b610229816102238454610171565b846101ab565b602080601f83116001811461025e57600084156102465750858301515b600019600386901b1c1916600185901b1785556101f3565b600085815260208120601f198616915b8281101561028d5788860151825594840194600190910190840161026e565b50858210156102ab5787850151600019600388901b60f8161c191681555b5050505050600190811b01905550565b610379806102ca6000396000f3fe6080604052600436106100425760003560e01c8062f55d9d1461006b57806306fdde031461008d57806327e235e3146100b8578063a9059cbb146100f357600080fd5b366100665761005234600a610222565b336000908152600160205260409020819055005b600080fd5b34801561007757600080fd5b5061008b610086366004610257565b610113565b005b34801561009957600080fd5b506100a261011f565b6040516100af919061027b565b60405180910390f35b3480156100c457600080fd5b506100e56100d3366004610257565b60016020526000908152604090205481565b6040519081526020016100af565b3480156100ff57600080fd5b5061008b61010e3660046102ca565b6101ad565b806001600160a01b0316ff5b6000805461012c906102f6565b80601f0160208091040260200160405190810160405280929190818152602001828054610158906102f6565b80156101a55780601f1061017a576101008083540402835291602001916101a5565b820191906000526020600020905b81548152906001019060200180831161018857829003601f168201915b505050505081565b336000908152600160205260409020548111156101c957600080fd5b336000908152600160205260409020546101e4908290610330565b33600090815260016020526040808220929092556001600160a01b0393909316835290912055565b634e487b7160e01b600052601160045260246000fd5b80820281158282048414176102395761023961020c565b92915050565b6001600160a01b038116811461025457600080fd5b50565b60006020828403121561026957600080fd5b81356102748161023f565b9392505050565b60006020808352835180602085015260005b818110156102a95785810183015185820160400152820161028d565b506000604082860101526040601f19601f8301168501019250505092915050565b600080604083850312156102dd57600080fd5b82356102e88161023f565b946020939093013593505050565b600181811c9082168061030a57607f821691505b60208210810361032a57634e487b7160e01b600052602260045260246000fd5b50919050565b818103818111156102395761023961020c56fea264697066735822122027b1c0819d8c3234f099ac35217562c8c7a9b696387155bab0699013fe11123b64736f6c63430008160033a26469706673582212205cf2c57131a017cc540402db06e16d8c954314c5d198f8460fd8e08538687ecd64736f6c63430008160033",
    "linkReferences": {}
  },
  "methodIdentifiers": {
    "generateToken(string,uint256)": "3894e516"
  },
  "id": 18
}