{
  "abi": [
    {
      "anonymous": false,
      "inputs": [
        {
          "indexed": true,
          "internalType": "address",
          "name": "previousOwner",
          "type": "address"
        },
        {
          "indexed": true,
          "internalType": "address",
          "name": "newOwner",
          "type": "address"
        }
      ],
      "name": "OwnershipTransferred",
      "type": "event"
    },
    {
      "inputs": [
        {
          "internalType": "address",
          "name": "",
          "type": "address"
        }
      ],
      "name": "createInstance",
      "outputs": [
        {
          "internalType": "address",
          "name": "",
          "type": "address"
        }
      ],
      "stateMutability": "payable",
      "type": "function"
    },
    {
      "inputs": [],
      "name": "owner",
      "outputs": [
        {
          "internalType": "address",
          "name": "",
          "type": "address"
        }
      ],
      "stateMutability": "view",
      "type": "function"
    },
    {
      "inputs": [],
      "name": "renounceOwnership",
      "outputs": [],
      "stateMutability": "nonpayable",
      "type": "function"
    },
    {
      "inputs": [
        {
          "internalType": "address",
          "name": "newOwner",
          "type": "address"
        }
      ],
      "name": "transferOwnership",
      "outputs": [],
      "stateMutability": "nonpayable",
      "type": "function"
    },
    {
      "inputs": [
        {
          "internalType": "address payable",
          "name": "_instance",
          "type": "address"
        },
        {
          "internalType": "address",
          "name": "",
          "type": "address"
        }
      ],
      "name": "validateInstance",
      "outputs": [
        {
          "internalType": "bool",
          "name": "",
          "type": "bool"
        }
      ],
      "stateMutability": "view",
      "type": "function"
    }
  ],
  "bytecode": {
    "object": "0x608060405234801561001057600080fd5b5061001a3361001f565b61006f565b600080546001600160a01b038381166001600160a01b0319831681178455604051919092169283917f8be0079c531659141344cd1fd0a4f28419497f9722a3daafe3b4186f6b6457e09190a35050565b61073a8061007e6000396000f3fe60806040526004361061004a5760003560e01c8063715018a61461004f5780637726f776146100665780638da5cb5b14610096578063d38def5b146100b4578063f2fde38b146100e4575b600080fd5b34801561005b57600080fd5b50610064610104565b005b6100796100743660046103da565b610118565b6040516001600160a01b0390911681526020015b60405180910390f35b3480156100a257600080fd5b506000546001600160a01b0316610079565b3480156100c057600080fd5b506100d46100cf3660046103fe565b610201565b604051901515815260200161008d565b3480156100f057600080fd5b506100646100ff3660046103da565b610272565b61010c6102f0565b610116600061034a565b565b600061012261039a565b604080513260601b6bffffffffffffffffffffffff19166020808301829052600360fc1b60348085019190915284516015818603810182526035958601875281519184019190912087528551808401859052603160f81b81840152865180820383018152908601875280519084012087840152855180840194909452601960f91b91840191909152845180840390910181529190920183528051910120828201525160009082906101d2906103b8565b6101dc9190610437565b604051809103906000f0801580156101f8573d6000803e3d6000fd5b50949350505050565b600080839050806001600160a01b031663cf3090126040518163ffffffff1660e01b8152600401602060405180830381865afa158015610245573d6000803e3d6000fd5b505050506040513d601f19601f820116820180604052508101906102699190610468565b15949350505050565b61027a6102f0565b6001600160a01b0381166102e45760405162461bcd60e51b815260206004820152602660248201527f4f776e61626c653a206e6577206f776e657220697320746865207a65726f206160448201526564647265737360d01b60648201526084015b60405180910390fd5b6102ed8161034a565b50565b6000546001600160a01b031633146101165760405162461bcd60e51b815260206004820181905260248201527f4f776e61626c653a2063616c6c6572206973206e6f7420746865206f776e657260448201526064016102db565b600080546001600160a01b038381166001600160a01b0319831681178455604051919092169283917f8be0079c531659141344cd1fd0a4f28419497f9722a3daafe3b4186f6b6457e09190a35050565b60405180606001604052806003906020820280368337509192915050565b61027a8061048b83390190565b6001600160a01b03811681146102ed57600080fd5b6000602082840312156103ec57600080fd5b81356103f7816103c5565b9392505050565b6000806040838503121561041157600080fd5b823561041c816103c5565b9150602083013561042c816103c5565b809150509250929050565b60608101818360005b600381101561045f578151835260209283019290910190600101610440565b50505092915050565b60006020828403121561047a57600080fd5b815180151581146103f757600080fdfe60806040526000805460ff1916600190811790915542908190556002805461ffff909216620100000263ffffffff199092169190911761ff0a17905534801561004757600080fd5b5060405161027a38038061027a833981016040819052610066916100cc565b61007260038281610079565b5050610157565b82600381019282156100a7579160200282015b828111156100a757825182559160200191906001019061008c565b506100b39291506100b7565b5090565b5b808211156100b357600081556001016100b8565b6000606082840312156100de57600080fd5b82601f8301126100ed57600080fd5b604051606081016001600160401b038111828210171561011d57634e487b7160e01b600052604160045260246000fd5b60405280606084018581111561013257600080fd5b845b8181101561014c578051835260209283019201610134565b509195945050505050565b610114806101666000396000f3fe6080604052348015600f57600080fd5b5060043610603c5760003560e01c8063b3cea217146041578063cf30901214605c578063e1afb08c146077575b600080fd5b604960015481565b6040519081526020015b60405180910390f35b60005460689060ff1681565b60405190151581526020016053565b6086608236600460af565b6088565b005b6005546001600160801b031982811691161460a257600080fd5b506000805460ff19169055565b60006020828403121560c057600080fd5b81356001600160801b03198116811460d757600080fd5b939250505056fea2646970667358221220786fe46b023516d5ad232b6315b718b5071d0c735671445e53dd6cb403c294cc64736f6c63430008160033a2646970667358221220d5bf73dff23f76b81429e030d8a22608ced8addeb45af64023cb180f6b12129064736f6c63430008160033",
    "linkReferences": {}
  },
  "methodIdentifiers": {
    "createInstance(address)": "7726f776",
    "owner()": "8da5cb5b",
    "renounceOwnership()": "715018a6",
    "transferOwnership(address)": "f2fde38b",
    "validateInstance(address,address)": "d38def5b"
  },
  "id": 9
}