{
  "abi": [
    {
      "inputs": [],
      "name": "contractBalance",
      "outputs": [
        {
          "internalType": "uint256",
          "name": "",
          "type": "uint256"
        }
      ],
      "stateMutability": "view",
      "type": "function"
    },
    {
      "inputs": [],
      "name": "owner",
      "outputs": [
        {
          "internalType": "address",
          "name": "",
          "type": "address"
        }
      ],
      "stateMutability": "view",
      "type": "function"
    },
    {
      "inputs": [],
      "name": "partner",
      "outputs": [
        {
          "internalType": "address",
          "name": "",
          "type": "address"
        }
      ],
      "stateMutability": "view",
      "type": "function"
    },
    {
      "inputs": [
        {
          "internalType": "address",
          "name": "_partner",
          "type": "address"
        }
      ],
      "name": "setWithdrawPartner",
      "outputs": [],
      "stateMutability": "nonpayable",
      "type": "function"
    },
    {
      "inputs": [],
      "name": "withdraw",
      "outputs": [],
      "stateMutability": "nonpayable",
      "type": "function"
    },
    {
      "stateMutability": "payable",
      "type": "receive"
    }
  ],
  "bytecode": {
    "object": "0x608060405234801561001057600080fd5b50610291806100206000396000f3fe60806040526004361061004e5760003560e01c80633ccfd60b1461005a5780634e1c5914146100715780638b7afe2e146100ae5780638da5cb5b146100ce578063be10862b146100fc57600080fd5b3661005557005b600080fd5b34801561006657600080fd5b5061006f61011c565b005b34801561007d57600080fd5b5061006f61008c3660046101e2565b600080546001600160a01b0319166001600160a01b0392909216919091179055565b3480156100ba57600080fd5b506040514781526020015b60405180910390f35b3480156100da57600080fd5b506100e4610a9e81565b6040516001600160a01b0390911681526020016100c5565b34801561010857600080fd5b506000546100e4906001600160a01b031681565b6000610129606447610212565b600080546040519293506001600160a01b031691839181818185875af1925050503d8060008114610176576040519150601f19603f3d011682016040523d82523d6000602084013e61017b565b606091505b5050604051610a9e915082156108fc029083906000818181858888f193505050501580156101ad573d6000803e3d6000fd5b5042600155600080546001600160a01b0316815260026020526040812080548392906101da908490610234565b909155505050565b6000602082840312156101f457600080fd5b81356001600160a01b038116811461020b57600080fd5b9392505050565b60008261022f57634e487b7160e01b600052601260045260246000fd5b500490565b8082018082111561025557634e487b7160e01b600052601160045260246000fd5b9291505056fea2646970667358221220411813c999cfea40661952246f16bceb60a5ef1a225509759bc9b741f12895d964736f6c63430008160033",
    "linkReferences": {}
  },
  "methodIdentifiers": {
    "contractBalance()": "8b7afe2e",
    "owner()": "8da5cb5b",
    "partner()": "be10862b",
    "setWithdrawPartner(address)": "4e1c5914",
    "withdraw()": "3ccfd60b"
  },
  "id": 25
}