{
  "abi": [
    {
      "anonymous": false,
      "inputs": [
        {
          "indexed": true,
          "internalType": "address",
          "name": "previousOwner",
          "type": "address"
        },
        {
          "indexed": true,
          "internalType": "address",
          "name": "newOwner",
          "type": "address"
        }
      ],
      "name": "OwnershipTransferred",
      "type": "event"
    },
    {
      "inputs": [
        {
          "internalType": "address",
          "name": "_player",
          "type": "address"
        }
      ],
      "name": "createInstance",
      "outputs": [
        {
          "internalType": "address",
          "name": "",
          "type": "address"
        }
      ],
      "stateMutability": "payable",
      "type": "function"
    },
    {
      "inputs": [],
      "name": "insertCoin",
      "outputs": [
        {
          "internalType": "uint256",
          "name": "",
          "type": "uint256"
        }
      ],
      "stateMutability": "view",
      "type": "function"
    },
    {
      "inputs": [],
      "name": "owner",
      "outputs": [
        {
          "internalType": "address",
          "name": "",
          "type": "address"
        }
      ],
      "stateMutability": "view",
      "type": "function"
    },
    {
      "inputs": [],
      "name": "renounceOwnership",
      "outputs": [],
      "stateMutability": "nonpayable",
      "type": "function"
    },
    {
      "inputs": [
        {
          "internalType": "address",
          "name": "newOwner",
          "type": "address"
        }
      ],
      "name": "transferOwnership",
      "outputs": [],
      "stateMutability": "nonpayable",
      "type": "function"
    },
    {
      "inputs": [
        {
          "internalType": "address payable",
          "name": "_instance",
          "type": "address"
        },
        {
          "internalType": "address",
          "name": "_player",
          "type": "address"
        }
      ],
      "name": "validateInstance",
      "outputs": [
        {
          "internalType": "bool",
          "name": "",
          "type": "bool"
        }
      ],
      "stateMutability": "nonpayable",
      "type": "function"
    },
    {
      "stateMutability": "payable",
      "type": "receive"
    }
  ],
  "bytecode": {
    "object": "0x608060405266038d7ea4c6800060015534801561001b57600080fd5b506100253361002a565b61007a565b600080546001600160a01b038381166001600160a01b0319831681178455604051919092169283917f8be0079c531659141344cd1fd0a4f28419497f9722a3daafe3b4186f6b6457e09190a35050565b610675806100896000396000f3fe6080604052600436106100595760003560e01c8063715018a6146100655780637726f7761461007c5780638da5cb5b146100ac57806390696af9146100ca578063d38def5b146100ee578063f2fde38b1461012857600080fd5b3661006057005b600080fd5b34801561007157600080fd5b5061007a610148565b005b61008f61008a366004610331565b61015c565b6040516001600160a01b0390911681526020015b60405180910390f35b3480156100b857600080fd5b506000546001600160a01b031661008f565b3480156100d657600080fd5b506100e060015481565b6040519081526020016100a3565b3480156100fa57600080fd5b50610118610109366004610355565b506001600160a01b0316311590565b60405190151581526020016100a3565b34801561013457600080fd5b5061007a610143366004610331565b6101e7565b610150610265565b61015a60006102bf565b565b600060015434101561016d57600080fd5b600060405161017b9061030f565b604051809103906000f080158015610197573d6000803e3d6000fd5b5090506001544710156101a957600080fd5b6001546040516001600160a01b0383169180156108fc02916000818181858888f193505050501580156101e0573d6000803e3d6000fd5b5092915050565b6101ef610265565b6001600160a01b0381166102595760405162461bcd60e51b815260206004820152602660248201527f4f776e61626c653a206e6577206f776e657220697320746865207a65726f206160448201526564647265737360d01b60648201526084015b60405180910390fd5b610262816102bf565b50565b6000546001600160a01b0316331461015a5760405162461bcd60e51b815260206004820181905260248201527f4f776e61626c653a2063616c6c6572206973206e6f7420746865206f776e65726044820152606401610250565b600080546001600160a01b038381166001600160a01b0319831681178455604051919092169283917f8be0079c531659141344cd1fd0a4f28419497f9722a3daafe3b4186f6b6457e09190a35050565b6102b18061038f83390190565b6001600160a01b038116811461026257600080fd5b60006020828403121561034357600080fd5b813561034e8161031c565b9392505050565b6000806040838503121561036857600080fd5b82356103738161031c565b915060208301356103838161031c565b80915050925092905056fe608060405234801561001057600080fd5b50610291806100206000396000f3fe6080604052600436106100425760003560e01c8062362a951461004e57806327e235e3146100635780632e1a7d4d146100a257806370a08231146100c257600080fd5b3661004957005b600080fd5b61006161005c3660046101d6565b6100f8565b005b34801561006f57600080fd5b5061009061007e3660046101d6565b60006020819052908152604090205481565b60405190815260200160405180910390f35b3480156100ae57600080fd5b506100616100bd366004610206565b610137565b3480156100ce57600080fd5b506100906100dd3660046101d6565b6001600160a01b031660009081526020819052604090205490565b6001600160a01b03811660009081526020819052604090205461011b90346101c1565b6001600160a01b03909116600090815260208190526040902055565b3360009081526020819052604090205481116101be57604051600090339083908381818185875af1925050503d806000811461018f576040519150601f19603f3d011682016040523d82523d6000602084013e610194565b606091505b5050905033600090815260208190526040812080548492906101b7908490610235565b9091555050505b50565b60006101cd8284610248565b90505b92915050565b6000602082840312156101e857600080fd5b81356001600160a01b03811681146101ff57600080fd5b9392505050565b60006020828403121561021857600080fd5b5035919050565b634e487b7160e01b600052601160045260246000fd5b818103818111156101d0576101d061021f565b808201808211156101d0576101d061021f56fea264697066735822122049b16cc0891dc32d9ac138c15c4c36db17ae3091e87baac86a2750140e40e9c164736f6c63430008160033a264697066735822122070b526f45b2a6843970832c1d24741991931af26c586ba91f2f2a7420ccbd3bf64736f6c63430008160033",
    "linkReferences": {}
  },
  "methodIdentifiers": {
    "createInstance(address)": "7726f776",
    "insertCoin()": "90696af9",
    "owner()": "8da5cb5b",
    "renounceOwnership()": "715018a6",
    "transferOwnership(address)": "f2fde38b",
    "validateInstance(address,address)": "d38def5b"
  },
  "id": 5
}