{
  "abi": [
    {
      "inputs": [
        {
          "internalType": "address payable",
          "name": "_target",
          "type": "address"
        }
      ],
      "stateMutability": "nonpayable",
      "type": "constructor"
    },
    {
      "inputs": [
        {
          "internalType": "uint256",
          "name": "_password",
          "type": "uint256"
        }
      ],
      "name": "checkPassword",
      "outputs": [
        {
          "internalType": "bool",
          "name": "",
          "type": "bool"
        }
      ],
      "stateMutability": "nonpayable",
      "type": "function"
    },
    {
      "inputs": [],
      "name": "target",
      "outputs": [
        {
          "internalType": "contract GatekeeperThree",
          "name": "",
          "type": "address"
        }
      ],
      "stateMutability": "view",
      "type": "function"
    },
    {
      "inputs": [],
      "name": "trick",
      "outputs": [
        {
          "internalType": "address",
          "name": "",
          "type": "address"
        }
      ],
      "stateMutability": "view",
      "type": "function"
    },
    {
      "inputs": [],
      "name": "trickInit",
      "outputs": [],
      "stateMutability": "nonpayable",
      "type": "function"
    },
    {
      "inputs": [],
      "name": "trickyTrick",
      "outputs": [],
      "stateMutability": "nonpayable",
      "type": "function"
    }
  ],
  "bytecode": {
    "object": "0x60806040524260025534801561001457600080fd5b5060405161027038038061027083398101604081905261003391610058565b600080546001600160a01b0319166001600160a01b0392909216919091179055610088565b60006020828403121561006a57600080fd5b81516001600160a01b038116811461008157600080fd5b9392505050565b6101d9806100976000396000f3fe608060405234801561001057600080fd5b50600436106100575760003560e01c80634cbb817f1461005c578063690da2b2146100755780639e4b2e47146100a5578063b7e00291146100c8578063d4b83992146100d0575b600080fd5b610073600180546001600160a01b03191630179055565b005b600154610088906001600160a01b031681565b6040516001600160a01b0390911681526020015b60405180910390f35b6100b86100b336600461018a565b6100e3565b604051901515815260200161009c565b610073610101565b600054610088906001600160a01b031681565b600060025482036100f657506001919050565b505042600255600090565b303314801561011b57506001546001600160a01b03163014155b15610188576000546002546040516364b00ba760e11b81526001600160a01b039092169163c960174e916101559160040190815260200190565b600060405180830381600087803b15801561016f57600080fd5b505af1158015610183573d6000803e3d6000fd5b505050505b565b60006020828403121561019c57600080fd5b503591905056fea2646970667358221220325787e3df2cdf5de78b563e6991ea4092825f86c3d4871754867d2e87219f4c64736f6c63430008160033",
    "linkReferences": {}
  },
  "methodIdentifiers": {
    "checkPassword(uint256)": "9e4b2e47",
    "target()": "d4b83992",
    "trick()": "690da2b2",
    "trickInit()": "4cbb817f",
    "trickyTrick()": "b7e00291"
  },
  "id": 40
}