{
  "abi": [
    {
      "inputs": [
        {
          "internalType": "address",
          "name": "_who",
          "type": "address"
        }
      ],
      "name": "balanceOf",
      "outputs": [
        {
          "internalType": "uint256",
          "name": "balance",
          "type": "uint256"
        }
      ],
      "stateMutability": "view",
      "type": "function"
    },
    {
      "inputs": [
        {
          "internalType": "address",
          "name": "",
          "type": "address"
        }
      ],
      "name": "balances",
      "outputs": [
        {
          "internalType": "uint256",
          "name": "",
          "type": "uint256"
        }
      ],
      "stateMutability": "view",
      "type": "function"
    },
    {
      "inputs": [
        {
          "internalType": "address",
          "name": "_to",
          "type": "address"
        }
      ],
      "name": "donate",
      "outputs": [],
      "stateMutability": "payable",
      "type": "function"
    },
    {
      "inputs": [
        {
          "internalType": "uint256",
          "name": "_amount",
          "type": "uint256"
        }
      ],
      "name": "withdraw",
      "outputs": [],
      "stateMutability": "nonpayable",
      "type": "function"
    },
    {
      "stateMutability": "payable",
      "type": "receive"
    }
  ],
  "bytecode": {
    "object": "0x608060405234801561001057600080fd5b50610291806100206000396000f3fe6080604052600436106100425760003560e01c8062362a951461004e57806327e235e3146100635780632e1a7d4d146100a257806370a08231146100c257600080fd5b3661004957005b600080fd5b61006161005c3660046101d6565b6100f8565b005b34801561006f57600080fd5b5061009061007e3660046101d6565b60006020819052908152604090205481565b60405190815260200160405180910390f35b3480156100ae57600080fd5b506100616100bd366004610206565b610137565b3480156100ce57600080fd5b506100906100dd3660046101d6565b6001600160a01b031660009081526020819052604090205490565b6001600160a01b03811660009081526020819052604090205461011b90346101c1565b6001600160a01b03909116600090815260208190526040902055565b3360009081526020819052604090205481116101be57604051600090339083908381818185875af1925050503d806000811461018f576040519150601f19603f3d011682016040523d82523d6000602084013e610194565b606091505b5050905033600090815260208190526040812080548492906101b7908490610235565b9091555050505b50565b60006101cd8284610248565b90505b92915050565b6000602082840312156101e857600080fd5b81356001600160a01b03811681146101ff57600080fd5b9392505050565b60006020828403121561021857600080fd5b5035919050565b634e487b7160e01b600052601160045260246000fd5b818103818111156101d0576101d061021f565b808201808211156101d0576101d061021f56fea264697066735822122049b16cc0891dc32d9ac138c15c4c36db17ae3091e87baac86a2750140e40e9c164736f6c63430008160033",
    "linkReferences": {}
  },
  "methodIdentifiers": {
    "balanceOf(address)": "70a08231",
    "balances(address)": "27e235e3",
    "donate(address)": "00362a95",
    "withdraw(uint256)": "2e1a7d4d"
  },
  "id": 4
}