{
  "abi": [
    {
      "inputs": [
        {
          "internalType": "address",
          "name": "_owner",
          "type": "address"
        }
      ],
      "stateMutability": "nonpayable",
      "type": "constructor"
    },
    {
      "inputs": [],
      "name": "owner",
      "outputs": [
        {
          "internalType": "address",
          "name": "",
          "type": "address"
        }
      ],
      "stateMutability": "view",
      "type": "function"
    },
    {
      "inputs": [],
      "name": "pwn",
      "outputs": [],
      "stateMutability": "nonpayable",
      "type": "function"
    }
  ],
  "bytecode": {
    "object": "0x608060405234801561001057600080fd5b5060405161014538038061014583398101604081905261002f91610054565b600080546001600160a01b0319166001600160a01b0392909216919091179055610084565b60006020828403121561006657600080fd5b81516001600160a01b038116811461007d57600080fd5b9392505050565b60b3806100926000396000f3fe6080604052348015600f57600080fd5b506004361060325760003560e01c80638da5cb5b146037578063dd365b8b146065575b600080fd5b6000546049906001600160a01b031681565b6040516001600160a01b03909116815260200160405180910390f35b607b600080546001600160a01b03191633179055565b00fea264697066735822122002beac87edaf5c9078e7ed6ad7bf1c41adfaead0ebd9e79085cfea5969cad11564736f6c63430008160033",
    "linkReferences": {}
  },
  "methodIdentifiers": {
    "owner()": "8da5cb5b",
    "pwn()": "dd365b8b"
  },
  "id": 50
}