{
  "abi": [
    {
      "inputs": [
        {
          "internalType": "address",
          "name": "addr",
          "type": "address"
        }
      ],
      "name": "addToWhitelist",
      "outputs": [],
      "stateMutability": "nonpayable",
      "type": "function"
    },
    {
      "inputs": [
        {
          "internalType": "address",
          "name": "",
          "type": "address"
        }
      ],
      "name": "balances",
      "outputs": [
        {
          "internalType": "uint256",
          "name": "",
          "type": "uint256"
        }
      ],
      "stateMutability": "view",
      "type": "function"
    },
    {
      "inputs": [],
      "name": "deposit",
      "outputs": [],
      "stateMutability": "payable",
      "type": "function"
    },
    {
      "inputs": [
        {
          "internalType": "address",
          "name": "to",
          "type": "address"
        },
        {
          "internalType": "uint256",
          "name": "value",
          "type": "uint256"
        },
        {
          "internalType": "bytes",
          "name": "data",
          "type": "bytes"
        }
      ],
      "name": "execute",
      "outputs": [],
      "stateMutability": "payable",
      "type": "function"
    },
    {
      "inputs": [
        {
          "internalType": "uint256",
          "name": "_maxBalance",
          "type": "uint256"
        }
      ],
      "name": "init",
      "outputs": [],
      "stateMutability": "nonpayable",
      "type": "function"
    },
    {
      "inputs": [],
      "name": "maxBalance",
      "outputs": [
        {
          "internalType": "uint256",
          "name": "",
          "type": "uint256"
        }
      ],
      "stateMutability": "view",
      "type": "function"
    },
    {
      "inputs": [
        {
          "internalType": "bytes[]",
          "name": "data",
          "type": "bytes[]"
        }
      ],
      "name": "multicall",
      "outputs": [],
      "stateMutability": "payable",
      "type": "function"
    },
    {
      "inputs": [],
      "name": "owner",
      "outputs": [
        {
          "internalType": "address",
          "name": "",
          "type": "address"
        }
      ],
      "stateMutability": "view",
      "type": "function"
    },
    {
      "inputs": [
        {
          "internalType": "uint256",
          "name": "_maxBalance",
          "type": "uint256"
        }
      ],
      "name": "setMaxBalance",
      "outputs": [],
      "stateMutability": "nonpayable",
      "type": "function"
    },
    {
      "inputs": [
        {
          "internalType": "address",
          "name": "",
          "type": "address"
        }
      ],
      "name": "whitelisted",
      "outputs": [
        {
          "internalType": "bool",
          "name": "",
          "type": "bool"
        }
      ],
      "stateMutability": "view",
      "type": "function"
    }
  ],
  "bytecode": {
    "object": "0x608060405234801561001057600080fd5b50610983806100206000396000f3fe6080604052600436106100915760003560e01c8063b61d27f611610059578063b61d27f614610159578063b7b0422d1461016c578063d0e30db01461018c578063d936547e14610194578063e43252d7146101d457600080fd5b806327e235e31461009657806373ad468a146100d65780638da5cb5b146100ec5780639d51d9b714610124578063ac9650d814610146575b600080fd5b3480156100a257600080fd5b506100c36100b1366004610737565b60036020526000908152604090205481565b6040519081526020015b60405180910390f35b3480156100e257600080fd5b506100c360015481565b3480156100f857600080fd5b5060005461010c906001600160a01b031681565b6040516001600160a01b0390911681526020016100cd565b34801561013057600080fd5b5061014461013f366004610759565b6101f4565b005b610144610154366004610772565b61027f565b6101446101673660046107e7565b61045e565b34801561017857600080fd5b50610144610187366004610759565b6105b3565b610144610610565b3480156101a057600080fd5b506101c46101af366004610737565b60026020526000908152604090205460ff1681565b60405190151581526020016100cd565b3480156101e057600080fd5b506101446101ef366004610737565b6106ad565b3360009081526002602052604090205460ff1661022c5760405162461bcd60e51b81526004016102239061086e565b60405180910390fd5b471561027a5760405162461bcd60e51b815260206004820152601960248201527f436f6e74726163742062616c616e6365206973206e6f742030000000000000006044820152606401610223565b600155565b3360009081526002602052604090205460ff166102ae5760405162461bcd60e51b81526004016102239061086e565b6000805b828110156104585760008484838181106102ce576102ce610897565b90506020028101906102e091906108ad565b8080601f01602080910402602001604051908101604052809392919081815260200183838082843760009201919091525050506020820151919250506302f1cf2560e41b6001600160e01b03198216016103875783156103825760405162461bcd60e51b815260206004820152601f60248201527f4465706f7369742063616e206f6e6c792062652063616c6c6564206f6e6365006044820152606401610223565b600193505b60003087878681811061039c5761039c610897565b90506020028101906103ae91906108ad565b6040516103bc9291906108fb565b600060405180830381855af49150503d80600081146103f7576040519150601f19603f3d011682016040523d82523d6000602084013e6103fc565b606091505b505090508061044d5760405162461bcd60e51b815260206004820152601b60248201527f4572726f72207768696c652064656c65676174696e672063616c6c00000000006044820152606401610223565b5050506001016102b2565b50505050565b3360009081526002602052604090205460ff1661048d5760405162461bcd60e51b81526004016102239061086e565b336000908152600360205260409020548311156104e35760405162461bcd60e51b8152602060048201526014602482015273496e73756666696369656e742062616c616e636560601b6044820152606401610223565b3360009081526003602052604081208054859290610502908490610921565b925050819055506000846001600160a01b03168484846040516105269291906108fb565b60006040518083038185875af1925050503d8060008114610563576040519150601f19603f3d011682016040523d82523d6000602084013e610568565b606091505b50509050806105ac5760405162461bcd60e51b815260206004820152601060248201526f115e1958dd5d1a5bdb8819985a5b195960821b6044820152606401610223565b5050505050565b600154156105f95760405162461bcd60e51b8152602060048201526013602482015272105b1c9958591e481a5b9a5d1a585b1a5e9959606a1b6044820152606401610223565b600155600080546001600160a01b03191633179055565b3360009081526002602052604090205460ff1661063f5760405162461bcd60e51b81526004016102239061086e565b6001544711156106875760405162461bcd60e51b815260206004820152601360248201527213585e0818985b185b98d9481c995858da1959606a1b6044820152606401610223565b33600090815260036020526040812080543492906106a690849061093a565b9091555050565b6000546001600160a01b031633146106f75760405162461bcd60e51b815260206004820152600d60248201526c2737ba103a34329037bbb732b960991b6044820152606401610223565b6001600160a01b03166000908152600260205260409020805460ff19166001179055565b80356001600160a01b038116811461073257600080fd5b919050565b60006020828403121561074957600080fd5b6107528261071b565b9392505050565b60006020828403121561076b57600080fd5b5035919050565b6000806020838503121561078557600080fd5b823567ffffffffffffffff8082111561079d57600080fd5b818501915085601f8301126107b157600080fd5b8135818111156107c057600080fd5b8660208260051b85010111156107d557600080fd5b60209290920196919550909350505050565b600080600080606085870312156107fd57600080fd5b6108068561071b565b935060208501359250604085013567ffffffffffffffff8082111561082a57600080fd5b818701915087601f83011261083e57600080fd5b81358181111561084d57600080fd5b88602082850101111561085f57600080fd5b95989497505060200194505050565b6020808252600f908201526e139bdd081dda1a5d195b1a5cdd1959608a1b604082015260600190565b634e487b7160e01b600052603260045260246000fd5b6000808335601e198436030181126108c457600080fd5b83018035915067ffffffffffffffff8211156108df57600080fd5b6020019150368190038213156108f457600080fd5b9250929050565b8183823760009101908152919050565b634e487b7160e01b600052601160045260246000fd5b818103818111156109345761093461090b565b92915050565b808201808211156109345761093461090b56fea264697066735822122092ed72bea32dc8d557dedc5465fe9a2fa88242517d00b9fd0ba91469d07e614164736f6c63430008160033",
    "linkReferences": {}
  },
  "methodIdentifiers": {
    "addToWhitelist(address)": "e43252d7",
    "balances(address)": "27e235e3",
    "deposit()": "d0e30db0",
    "execute(address,uint256,bytes)": "b61d27f6",
    "init(uint256)": "b7b0422d",
    "maxBalance()": "73ad468a",
    "multicall(bytes[])": "ac9650d8",
    "owner()": "8da5cb5b",
    "setMaxBalance(uint256)": "9d51d9b7",
    "whitelisted(address)": "d936547e"
  },
  "id": 33
}