{
  "abi": [
    {
      "anonymous": false,
      "inputs": [
        {
          "indexed": true,
          "internalType": "address",
          "name": "previousOwner",
          "type": "address"
        },
        {
          "indexed": true,
          "internalType": "address",
          "name": "newOwner",
          "type": "address"
        }
      ],
      "name": "OwnershipTransferred",
      "type": "event"
    },
    {
      "inputs": [
        {
          "internalType": "address",
          "name": "_player",
          "type": "address"
        }
      ],
      "name": "createInstance",
      "outputs": [
        {
          "internalType": "address",
          "name": "",
          "type": "address"
        }
      ],
      "stateMutability": "payable",
      "type": "function"
    },
    {
      "inputs": [],
      "name": "owner",
      "outputs": [
        {
          "internalType": "address",
          "name": "",
          "type": "address"
        }
      ],
      "stateMutability": "view",
      "type": "function"
    },
    {
      "inputs": [],
      "name": "renounceOwnership",
      "outputs": [],
      "stateMutability": "nonpayable",
      "type": "function"
    },
    {
      "inputs": [
        {
          "internalType": "address",
          "name": "newOwner",
          "type": "address"
        }
      ],
      "name": "transferOwnership",
      "outputs": [],
      "stateMutability": "nonpayable",
      "type": "function"
    },
    {
      "inputs": [
        {
          "internalType": "address payable",
          "name": "_instance",
          "type": "address"
        },
        {
          "internalType": "address",
          "name": "_player",
          "type": "address"
        }
      ],
      "name": "validateInstance",
      "outputs": [
        {
          "internalType": "bool",
          "name": "",
          "type": "bool"
        }
      ],
      "stateMutability": "nonpayable",
      "type": "function"
    }
  ],
  "bytecode": {
    "object": "0x60806040526301406f40600155601460025534801561001d57600080fd5b506100273361002c565b61007c565b600080546001600160a01b038381166001600160a01b0319831681178455604051919092169283917f8be0079c531659141344cd1fd0a4f28419497f9722a3daafe3b4186f6b6457e09190a35050565b6106e08061008b6000396000f3fe60806040526004361061004a5760003560e01c8063715018a61461004f5780637726f776146100665780638da5cb5b14610096578063d38def5b146100b4578063f2fde38b146100e4575b600080fd5b34801561005b57600080fd5b50610064610104565b005b610079610074366004610395565b610118565b6040516001600160a01b0390911681526020015b60405180910390f35b3480156100a257600080fd5b506000546001600160a01b0316610079565b3480156100c057600080fd5b506100d46100cf3660046103b9565b6101ce565b604051901515815260200161008d565b3480156100f057600080fd5b506100646100ff366004610395565b61024b565b61010c6102c9565b6101166000610323565b565b60008060015460405161012a90610373565b908152602001604051809103906000f08015801561014c573d6000803e3d6000fd5b5060025460405163a9059cbb60e01b81526001600160a01b038681166004830152602482019290925291925082169063a9059cbb906044016020604051808303816000875af11580156101a3573d6000803e3d6000fd5b505050506040513d601f19601f820116820180604052508101906101c791906103f2565b5092915050565b6002546040516370a0823160e01b81526001600160a01b038381166004830152600092859290918316906370a0823190602401602060405180830381865afa15801561021e573d6000803e3d6000fd5b505050506040513d601f19601f820116820180604052508101906102429190610414565b11949350505050565b6102536102c9565b6001600160a01b0381166102bd5760405162461bcd60e51b815260206004820152602660248201527f4f776e61626c653a206e6577206f776e657220697320746865207a65726f206160448201526564647265737360d01b60648201526084015b60405180910390fd5b6102c681610323565b50565b6000546001600160a01b031633146101165760405162461bcd60e51b815260206004820181905260248201527f4f776e61626c653a2063616c6c6572206973206e6f7420746865206f776e657260448201526064016102b4565b600080546001600160a01b038381166001600160a01b0319831681178455604051919092169283917f8be0079c531659141344cd1fd0a4f28419497f9722a3daafe3b4186f6b6457e09190a35050565b61027d8061042e83390190565b6001600160a01b03811681146102c657600080fd5b6000602082840312156103a757600080fd5b81356103b281610380565b9392505050565b600080604083850312156103cc57600080fd5b82356103d781610380565b915060208301356103e781610380565b809150509250929050565b60006020828403121561040457600080fd5b815180151581146103b257600080fd5b60006020828403121561042657600080fd5b505191905056fe608060405234801561001057600080fd5b5060405161027d38038061027d83398101604081905261002f91610049565b600181905533600090815260208190526040902055610062565b60006020828403121561005b57600080fd5b5051919050565b61020c806100716000396000f3fe608060405234801561001057600080fd5b50600436106100415760003560e01c806318160ddd1461004657806370a0823114610062578063a9059cbb1461008b575b600080fd5b61004f60015481565b6040519081526020015b60405180910390f35b61004f61007036600461014e565b6001600160a01b031660009081526020819052604090205490565b61009e610099366004610170565b6100ae565b6040519015158152602001610059565b3360009081526020819052604081205481906100cb9084906101b0565b10156100d657600080fd5b33600090815260208190526040812080548492906100f59084906101b0565b90915550506001600160a01b038316600090815260208190526040812080548492906101229084906101c3565b9091555060019150505b92915050565b80356001600160a01b038116811461014957600080fd5b919050565b60006020828403121561016057600080fd5b61016982610132565b9392505050565b6000806040838503121561018357600080fd5b61018c83610132565b946020939093013593505050565b634e487b7160e01b600052601160045260246000fd5b8181038181111561012c5761012c61019a565b8082018082111561012c5761012c61019a56fea26469706673582212207757339d342b2a6c46b8e22fdca79f385f10eef671afd8c74fcd2065a0dc0abc64736f6c63430008160033a26469706673582212207be00d06e937631a07867e63ae7e3d83cee3f09293058f774f5edc02f0bff5c864736f6c63430008160033",
    "linkReferences": {}
  },
  "methodIdentifiers": {
    "createInstance(address)": "7726f776",
    "owner()": "8da5cb5b",
    "renounceOwnership()": "715018a6",
    "transferOwnership(address)": "f2fde38b",
    "validateInstance(address,address)": "d38def5b"
  },
  "id": 49
}